:020000040800F2
:10000000282300205D3A0008CD0D0008CF0D000820
:10001000D30D0008D70D0008DB0D0008000000001C
:10002000000000000000000000000000DF0D0008DC
:10003000E10D000800000000E30D0008070E0008B5
:10004000773A0008773A0008773A0008A30E0008CC
:10005000773A0008773A0008773A0008773A0008BC
:10006000773A0008773A0008773A0008773A0008AC
:10007000773A0008773A0008773A0008773A00089C
:10008000773A0008773A0008773A0008773A00088C
:10009000773A0008773A0008773A0008773A00087C
:1000A000773A0008773A0008773A0008773A00086C
:1000B000E10E0008773A0008773A0008773A00081E
:1000C000773A0008773A0008773A0008773A00084C
:1000D000773A0008430E0008650E0008870E0008F6
:1000E000F70E0008B10E0008773A0008773A0008CA
:1000F000773A0008773A0008773A0008773A00081C
:10010000773A0008773A0008773A0008773A00080B
:10011000773A0008773A0008773A0008773A0008FB
:10012000773A0008773A0008773A0008773A0008EB
:10013000DFF80CD006F028FC00480047A7070008AD
:100140002823002010B54FF00100FE4908804FF031
:100150000000FD4908804FF05500FC490870FC493B
:100160000870FC48FC4908604FF00000FB4908603B
:10017000FB4908604FF00F020146FA4806F03CF9CF
:100180004FF0000405E04FF00000F749085504F176
:100190000104112CF7D34FF0000405E04FF00000EC
:1001A000F249085504F10104802CF7D30F220021F5
:1001B000EF4806F021F94FF0000405E04FF0300061
:1001C000EC49085504F101040F2CF7D31822002143
:1001D000E94806F011F92A220021E84806F00CF956
:1001E0000D220021E64806F007F914220021E54817
:1001F00006F002F906220021E34806F0FDF810BDE2
:100200004FF0000100BF084607E0DC4A125CD74B04
:100210005A5401F1010100F101000228F5D3D74A37
:100220009278D24B5A5401F101014FF0000008E0DE
:10023000D24AD21C125CCD4B5A5401F1010100F19B
:1002400001000228F4D34FF0000008E0CB4A521D11
:10025000125CC64B5A5401F1010100F10100022861
:10026000F4D34FF0000008E0C44AD21D125CBF4B2B
:100270005A5401F1010100F101000428F4D34FF0B8
:10028000000008E0BD4A0B32125CB84B5A5401F131
:10029000010100F101000428F4D34FF0000008E050
:1002A000B64A0F32125CB14B5A5401F1010100F110
:1002B00001000428F4D3B14AD27CAC4B5A5401F16A
:1002C00001014FF0000008E0AC4A1432125CA74B69
:1002D0005A5401F1010100F101000228F4D34FF05A
:1002E000000008E0A54A1632125CA04B5A5401F1F6
:1002F000010100F101000928F4D3A04AD27F9B4BF1
:100300005A5401F101014FF0000008E09B4A2032ED
:10031000125C964B5A5401F1010100F101000228D0
:10032000F4D34FF0000008E0944A2232125C8F4B65
:100330005A5401F1010100F101000228F4D34FF0F9
:10034000000008E08D4A2432125C884B5A5401F1B7
:10035000010100F101000228F4D34FF0000008E091
:10036000864A2632125C814B5A5401F1010100F198
:1003700001000228F4D34FF0000008E07F4A283241
:10038000125C7A4B5A5401F1010100F1010002287C
:10039000F4D32A2900D000BF70474FF0000000BFFF
:1003A000014607E0754A525C704B1A5400F1010097
:1003B00001F101010229F5D34FF004026B4B1A54ED
:1003C00000F101004FF000021A5400F101004FF05B
:1003D0001C021A5400F101004FF0000108E0674AC6
:1003E000521D525C614B1A5400F1010001F10101F0
:1003F0000229F4D34FF0000108E0604AD21D525C9C
:100400005A4B1A5400F1010001F101010429F4D3FF
:100410004FF0000108E0594A0B32525C534B1A541A
:1004200000F1010001F101010429F4D34FF00001B2
:1004300008E0524A0F32525C4C4B1A5400F1010052
:1004400001F101010429F4D34C4AD27C474B1A54E0
:1004500000F101004FF0000108E0484A1432525CFC
:10046000424B1A5400F1010001F101010229F4D3B9
:100470004FF0000108E0414A1632525C3B4B1A54DF
:1004800000F1010001F101010929F4D33B4AD27FB7
:10049000364B1A5400F101004FF071021A5400F16A
:1004A0000100212800D000BF704701464FF07002C4
:1004B000324B1A705A704FF002029A704FF00002DD
:1004C000DA704FF025032D4A13714FEA11222B4B9E
:1004D0005A711A4691714FF0000009E0C0F1030211
:1004E000284B9B5C254A02F10702135400F10100DE
:1004F0000428F3D34FF000000BE0C0F10303214ABE
:1005000002F10402D35C1D4A02F10B02135400F104
:1005100001000428F1D34FF000000BE0C0F1030309
:10052000184A02F10802D35C144A02F10F02135474
:1005300000F101000428F1D3124A127B0F4BDA7448
:1005400024E000000E000020100000201200002017
:10055000130000208051010014000020180000202A
:100560001C0000202401002069010020A4010020BB
:100570003301002042010020510100207A010020B7
:100580002402002034020020040000204FF000006C
:1005900007E0C0F10103FB4AD35CFB4A135400F1AE
:1005A00001000228F5D34FF0000006E0F74A135C83
:1005B000F54A921C135400F101000928F6D3F14AC0
:1005C0000E3A127CF04B143BDA774FF0000006E055
:1005D000EF4A135CEC4A0C32135400F1010002287C
:1005E000F6D34FF0000007E0E84A0932135CE64A10
:1005F0000E32135400F101000228F5D34FF0000031
:1006000007E0E24A0B32135CDF4A1032135400F168
:1006100001000228F5D34FF0000007E0DC4A921CED
:10062000135CD94A1232135400F101000228F5D3A9
:100630004FF0000007E0D64A121D135CD24A143274
:10064000135400F101000228F5D370474FF0000069
:1006500000BF014607E0CF4A525CCF4B1A5400F16D
:10066000010001F101010229F5D3CA4A9278CA4B6F
:100670001A5400F101004FF0000108E0C54AD21CF5
:10068000525CC54B1A5400F1010001F1010102292D
:10069000F4D34FF0000108E0BE4A521D525CBE4B3D
:1006A0001A5400F1010001F101010229F4D34FF0C5
:1006B000000108E0B74AD21D525CB74B1A5400F152
:1006C000010001F101010829F4D3B24A927DB24B35
:1006D0001A5400F10100AF4AD27D1A5400F1010012
:1006E000112800D000BF704770B504460D4602EBDC
:1006F000D2764FEA660606F101069E4201DB0F2A1A
:1007000001D0552070BD207800F00F0028701046F1
:1007100002EBD0764FEA66010FE004EB410010F8DF
:10072000010C4FF0F00606EA001014F8116006F014
:100730000F0630446854A1F101010029EDD1AA202F
:10074000E0E770B505460C464FF07000914908701F
:1007500048704FF0010088704FF00000C8704FF0F3
:100760000C018C4801714FEA14208A4948710846EF
:1007700084714FF008034FF00F0200F10701284683
:10078000FFF7B2FF552806D10F2200218148C01D76
:1007900005F032FE00BF4FF001007E4988754FF032
:1007A0002000C87570BDA4B04FF00004A0464FF003
:1007B0000106A146204611900746824610900F90F0
:1007C000054600F0DDFD03F038FD04F093F800F07D
:1007D000E8FB01214FF0C05001F0DDFB00F060FCB0
:1007E00000F039FC00F0CEFC00F071FD002003F0B9
:1007F00046F80121002003F058F8002003F056F9D4
:1008000000F08EFD012240F22551644802F0C8FD3F
:10081000012003F04BF900F09BFD012240F225512D
:100820005F4802F0BDFD00F0C4FCFFF78BFCC6E1A1
:100830004FF000084FF4967000F087FB002003F0A3
:1008400080F818B157480068012870D1002003F0E3
:1008500078F8012801D1824601E04FF0000A03F048
:10086000E5FC41E0C82000F070FB12A803F0F3FCA7
:10087000064636B94FF0AA004B4908704B4908703C
:1008800033E0032E08D14FF0AA00474908704FF01B
:1008900055004649087005E04FF055004249087080
:1008A0004249087008F1010000F0FF08B8F1120F8A
:1008B00002DD4FF0000818E0012001F058FC00BFF5
:1008C000012001F047FC0028FAD001F0EDFB00F117
:1008D0000A0B584601F00DFC01F026FC01210846E8
:1008E00001F067F900F099FBBCE700BF03F0FBFFE4
:1008F0004FF001002E4908804FF000002D4908807C
:10090000814604F0F0FD04F0EEFB04F053FC04F02B
:10091000F1FC04F07BFC002004F0C2FC04F016FDA6
:1009200004F067FD04F04EFD04F0BBFD0BE011E1A7
:10093000214804F0E9F8012804D104F10104052C50
:1009400001D901E000E0F3E700BF4FF000041848D0
:1009500001881948FFF7F5FEFFF778FE1448008874
:1009600000F101001249088045E00FAB10AA1121E7
:10097000094805F05FF9012820D104F10104052C94
:1009800039D939E0420200208E01002024020020E3
:1009900004000020510100206901002000380140BE
:1009A0000044004018000020120000201300002026
:1009B0000E0000201000002024010020F2A1DDE93B
:1009C0000F2003F0CCFE05469DB1E8794FEA0060A8
:1009D000297A00EB0140697A00EB0120A97A00EB4B
:1009E00001073C2F04D9E948874201D2E848076053
:1009F00000E000BF00E0B8E700BF0AE0E54804F00F
:100A0000DBF8012804D104F10104052C01D901E02F
:100A100000E0F3E700BF4FF0000499E0DE48007803
:100A2000AA2824D012A803F016FC064636B94FF0C7
:100A3000AA00DA490870D849087018E0032E08D1D6
:100A40004FF0AA00D54908704FF05500D249087000
:100A50000DE04FF05500D1490870CF4908704FF0B4
:100A600046024FF0000112A805F0C6FC00BFCC48BA
:100A7000362216A90E90684605F0ACFC12A80FC8E5
:100A800003F0F8FCC348006801460E90C54805F025
:100A900011F8C5480088FFF708FDBAF1010F0DD124
:100AA000C2480068012809D1FFF777FC4FF0210008
:100AB00011904FF00100BE49086008E0FFF7A0FB6D
:100AC0004FF02A0011904FF00000B9490860B94872
:100AD000119905F06AF801280ED109F1010000F022
:100AE000FF09B9F1040F06DD4FF0000905F00EF91A
:100AF00005F01BF92DE006E0AF48008800F1010089
:100B0000AD49088000BFAC480088002811DDA74827
:100B10000068012808D1A6480068012804D14FF0D8
:100B20000000A249086003E04FF001009F490860FF
:100B30000FE09D48008800F101009B4908800846AD
:100B4000008810B94FF001000880642000F0FDF922
:100B500064E700BF002002F092FE05F0F5F803F014
:100B60006CFB03F0C7FE012001F001FB00BF012078
:100B700001F0F0FA0028FAD0002002F0E2FE01288D
:100B80000BD18A480068012807D101F08DFA00F1E5
:100B90003C0B584601F0ADFA09E001F085FA7C49BA
:100BA000096800EB010B584601F0A3FA00BF01F001
:100BB000BBFA0121084600F0FCFF00F02EFA37E6F0
:100BC00070B54FF000052C4600BF00BF07E04FF0A6
:100BD00072007849085504F1010405F10105022D60
:100BE000F5D34FF077007349085504F101044FF035
:100BF0000000085504F101044FF05100085504F1BC
:100C000001044FF0000507E06C48405D6949085554
:100C100004F1010405F10105022DF5D34FF00005A3
:100C200008E06648801C405D6249085504F10104F3
:100C300005F10105042DF4D34FF0000508E05F48ED
:100C4000801D405D5B49085504F1010405F1010573
:100C5000042DF4D34FF0000508E058480A30405DF9
:100C60005449085504F1010405F10105042DF4D39C
:100C70005248401FC07C4F49085504F101044FF011
:100C8000000508E04D480F30405D4A49085504F121
:100C9000010405F10105022DF4D34FF0000508E031
:100CA00046481130405D4349085504F1010405F1FF
:100CB0000105092DF4D34148401FC07F3D49085527
:100CC00004F101044FF00000085504F1010402F0A2
:100CD00038FE3849085504F101044FF0000508E0DA
:100CE00036481D30405D3349085504F1010405F1D3
:100CF0000105022DF4D34FF0000508E02F481F3006
:100D0000405D2C49085504F1010405F10105022D4F
:100D1000F4D34FF0000507E02948405D2549085508
:100D200004F1010405F101050F2DF5D34FF0000585
:100D300007E02448405D1F49085504F1010405F10E
:100D400001050F2DF5D34FF0000507E01E48405D6B
:100D50001849085504F1010405F101050F2DF5D3DB
:100D60000E4800781349085504F101044FF00100C2
:100D7000085504F101044FF00000085504F1010486
:100D8000562C00D000BF70BD7070000000A30200A0
:100D9000140000200A000020130000201200002090
:100DA00034020020240200200E0000201800002041
:100DB0001C000020A4010020100000207F01002062
:100DC000240100203301002042010020704700BFB1
:100DD000FEE700BFFEE700BFFEE700BFFEE770478B
:100DE000704770474948006870476420704700B5F5
:100DF0000146FFF7F7FF024600BFFFF7F3FF801A37
:100E00008842FAD900BD10B54048006800F10100E1
:100E10003E4908604FF00001084603F039F900210F
:100E2000012003F035F900F098F810BD032800D335
:100E30007047374B43F82010364B43F8202000BF53
:100E4000F6E710B540F22551334802F0BAFB40B145
:100E5000314802F01FFBC4B221464FF0000003F0FE
:100E60008DF810BD10B540F225512C4802F0A9FBB9
:100E700040B12A4802F00EFBC4B221464FF00100F7
:100E800003F07CF810BD10B52148806830B12148CE
:100E900081681F4882680220904701E000BFFEE79A
:100EA00010BD10B5032001F07FF901F03DF910BD30
:100EB00010B5022001F065F988B14FF4003000F060
:100EC00052FC012000F0A7FE10B1012000F0B0FE9E
:100ED00001F02AF9022001F067F901F025F910BDAF
:100EE00010B50121880702F049F918B101218807DE
:100EF00002F058F910BD10B54FF4004000F020FC8E
:100F000018B14FF4004000F02EFC10BD200000206E
:100F100048020020540200200038014000440040F4
:100F200010B500280ADA4FEA01724FEA1264F64A55
:100F300000F00F03A3F10403D45405E04FEA01725B
:100F40004FEA1263F14A135410BDF149086000BF23
:100F5000EF4909680029FBD17047ED48006828B1C6
:100F6000EB480068A0F10100E9490860704710B53E
:100F70004FF00001E74A12684FF47A74B2FBF4F3C1
:100F80000CE04FF00602B3FBF2F2A2F1010100BF48
:100F90000A00A1F10101FBD1A0F101000028F0D16C
:100FA00010BD10B5DB4800684FF06401B0FBF1F4F0
:100FB000B4F1807F02D34FF0010016E024F07F40AF
:100FC000A0F101004FF0E02148614FF00F014FF018
:100FD000FF30FFF7A5FF4FF000004FF0E0218861E0
:100FE0004FF0070008614FF0000008B100BFFEE7B6
:100FF0000C214FF0FF30FFF793FF10BD10B54FF4F9
:10100000803000F047FE00F08AFE0446012C03D138
:101010004FF4A06000F0D9FE10BD10B54FF4803041
:1010200000F038FE00F07BFEBB49087008460078EF
:1010300001280FD100F0ABFE00BF392000F04DFEBB
:101040000028FAD0022000F0A5FE00BF00F0ADFE9F
:101050000828FBD110BD10B5012000F096FD00F06E
:101060008FFA012000F000FF00BF612000F035FE84
:101070000028FAD04FF4007000F0F9FE012000F0D3
:10108000FDFE01F058F847F6FF7001F024F801F07A
:101090004BF80121022000F0E5FF01F045F810BDFA
:1010A0001CB54FF4003000F05EFB4FF400300090B0
:1010B0004FF000008DF804004FF008008DF8050097
:1010C0004FF001008DF80600684600F0C8FA1CBD1C
:1010D0000EB50121084600F05EFF4FF0804001F0A0
:1010E0007DF84FF6FE70ADF804004FF6FF70ADF8D6
:1010F00000004FF00000ADF80600ADF802006946B0
:101100004FF0804001F03EF90121880702F032F8EB
:1011100001221146900701F00EFD0121880701F020
:10112000EEFC0021012000F036FF0EBD0EB50121BE
:10113000042000F030FF794801F050F848F6CE2046
:10114000ADF804004FF6FF70ADF800004FF000005E
:10115000ADF80600ADF802006946704801F012F9DA
:1011600001216E4802F006F8012211466B4801F099
:10117000E2FC0121694801F0C2FC0021042000F0DA
:101180000AFF0EBD08B54FF4A06000F079F94FF0EA
:1011900029008DF800004FF000008DF801008DF857
:1011A00002004FF001008DF80300684600F06EF970
:1011B00008BD08B54FF025008DF800004FF007007E
:1011C0008DF801004FF000008DF802004FF0010093
:1011D0008DF80300684600F059F94FF026008DF8AD
:1011E00000004FF007008DF801004FF001008DF86E
:1011F00002008DF80300684600F048F908BD08B504
:101200004FF4E06000F03CF94FF01C008DF8000056
:101210004FF000008DF801004FF003008DF8020040
:101220004FF001008DF80300684600F02FF908BD6B
:1012300008B54FF4E06000F023F94FF01E008DF880
:1012400000004FF000008DF801004FF004008DF811
:1012500002004FF001008DF80300684600F016F917
:1012600008BD10B50121084600F095FE0121880750
:1012700001F045FC10BD10B500214FF0804001F099
:101280003EFC0021012000F086FE10BD10B50121BA
:10129000042000F080FE0121204801F030FC10BD48
:1012A00010B500211D4801F02AFC0021042000F0A7
:1012B00072FE10BD10B545F2555000F039FC062005
:1012C00000F039FC40F21A6000F038FC10BD10B597
:1012D000002002F0AFFA10BD1FB54FF41650009079
:1012E0004FF00000ADF80400ADF80600ADF80800BE
:1012F000ADF80C004FF00C00ADF80A0069464FF055
:10130000020002F029FB1FBD18ED00E000E400E040
:101310002800002040000020240000200008004099
:101320001FB54FF4165000904FF00000ADF80400C8
:10133000ADF80600ADF80800ADF80C004FF00C0059
:10134000ADF80A0069464FF0000002F005FB1FBD32
:101350001FB54FF4165000904FF00000ADF8040098
:10136000ADF80600ADF80800ADF80C004FF00C0029
:10137000ADF80A0069464FF0010002F0EDFA1FBD1A
:1013800008B50121142000F0F7FD4FF00200ADF880
:1013900000004FF010008DF803004FF003008DF8AF
:1013A00002006946324800F04DFA4FF42060ADF873
:1013B00000004FF010008DF803004FF003008DF88F
:1013C000020069462B4800F03DFA4FF00400ADF8EA
:1013D00000004FF010008DF803004FF003008DF86F
:1013E00002006946244800F02DFA4FF02000ADF8C5
:1013F00000004FF010008DF803004FF003008DF84F
:10140000020069461D4800F01DFA4FF48060ADF8F7
:1014100000004FF028008DF803006946154800F0E1
:1014200011FA08BD08B50121142000F0A5FD4FF008
:101430000200ADF800004FF004008DF803004FF0FB
:1014400003008DF802006946094800F0FBF94FF4EB
:101450002060ADF800004FF004008DF803004FF05D
:1014600003008DF802006946024800F0EBF908BD60
:10147000000801400010014000140140000C014030
:10148000384940EA0101384A1160704770B54FF0A1
:1014900000010B464FF00F02C4784CB3324C246865
:1014A00004F4E064C4F5E0644FEA1421C1F10403DC
:1014B00022FA01F2447804FA03F1847804EA02047F
:1014C00044EA01014FEA0111284C0678A15504783D
:1014D00004F01F054FF0010404FA05F405784FEA03
:1014E00065154FF0E02606EB8505C5F800410CE0D8
:1014F000047804F01F054FF0010404FA05F41C4DB4
:1015000006784FEA661645F8264070BD194A01EA8A
:10151000020242EA0002184B1A60704731B1174AC2
:10152000126842EA0002154B1A6005E0134A12687D
:1015300022EA0002114B1A607047042808D14FF0CC
:10154000E021096941F004014FF0E022116107E058
:101550004FF0E021096921F004014FF0E022116110
:10156000704700000000FA050CED00E000E400E028
:1015700080E100E080FFFF1F08ED00E010ED00E0DB
:1015800010B5012000F034FD002000F031FD10BD49
:10159000244908607047244908607047234908605F
:1015A000704701464FF00000214A10884FF67F42F5
:1015B00000EA020040EA01001D4A1080704701461F
:1015C0004FF000001A4A10884FF6807200EA0200BD
:1015D00040EA0100164A108070474FF00002154A99
:1015E00002441160704701464FF00002114A0A445C
:1015F000108870470D4818300068C0B270470E4818
:10160000008840F001000C490880704707481C30F2
:101610000068C0B270470848008840F002000649E0
:101620000880704704860D4200860D4288860D4270
:101630002C6C0040006C0040346C00404FF0000007
:101640004A49086001F10401086001F104010860E1
:1016500001F10401086046484649086070474FF0B0
:10166000000142498279002A40D00A461268036884
:1016700022EA03020B461A6001F1040212680368B1
:1016800022EA030201F104031A60027911440A6894
:10169000036842EA03020A60374A1268036822EAD2
:1016A0000302354B1A6003F104021268036822EA50
:1016B0000302324B1A604279102A0ED12E4A126868
:1016C000036842EA03022C4B1A602C4A1268036832
:1016D00042EA0302294B1A600FE02449427911447F
:1016E0000A68036842EA03020A6006E002791144CC
:1016F0000A68036822EA03020A6070474FF000019B
:10170000016001714FF00C0141714FF000018171D6
:1017100070471B49096841EA0001194A1160704786
:1017200001464FF00000134A12680A4202D04FF0FF
:10173000010001E04FF0000070470E49086070475B
:1017400001464FF000000246084B1B6803EA010205
:10175000084B1B680B4203D012B14FF0010001E0AF
:101760004FF00000704703490860704700040140D3
:10177000FFFF0F0014040140080401400C04014065
:101780001004014010B50446DE48844208D101210E
:10179000042000F00FFC0021042000F00BFC46E0C8
:1017A000D948844208D10121082000F003FC00211F
:1017B000082000F0FFFB3AE0D448844208D1012120
:1017C000102000F0F7FB0021102000F0F3FB2EE0CA
:1017D000CF48844208D10121202000F0EBFB0021FA
:1017E000202000F0E7FB22E0CA48844208D1012112
:1017F000402000F0DFFB0021402000F0DBFB16E082
:10180000C548844208D10121802000F0D3FB00218B
:10181000802000F0CFFB0AE0C048844207D10121BC
:10182000801500F0C7FB0021A01500F0C3FB10BD20
:1018300010B50121084600F0BDFB0021012000F099
:10184000B9FB10BD2DE9F04102464FF000052E46D0
:10185000284603460446074691F803C00CF00F05DE
:1018600091F803C01CF0100F03D091F802C04CEAAD
:101870000505B1F800C01CF0FF0F35D014684FF01B
:1018800000002EE04FF0010C0CFA00F3B1F800C09C
:101890000CEA03069E4222D14FEA80034FF00F0C60
:1018A0000CFA03F724EA070405FA03FC4CEA0404E3
:1018B00091F803C0BCF1280F06D14FF0010C0CFACF
:1018C00000FCC2F814C00AE091F803C0BCF1480F54
:1018D00005D14FF0010C0CFA00FCC2F810C000F169
:1018E00001000828CED31460B1F800C0BCF1FF0F8E
:1018F00038DD54684FF0000031E000F1080C4FF083
:10190000010808FA0CF3B1F800C00CEA03069E4285
:1019100023D14FEA80034FF00F0C0CFA03F724EAAF
:10192000070405FA03FC4CEA040491F803C0BCF177
:10193000280F05D100F1080C08FA0CF8C2F8148041
:1019400091F803C0BCF1480F07D100F1080C4FF02B
:10195000010808FA0CF8C2F8108000F1010008280C
:10196000CBD35460BDE8F0814FF6FF7101804FF09A
:10197000020181704FF00401C170704702464FF0C0
:10198000000093680B4202D04FF0010001E04FF0DD
:10199000000070470146886880B2704702464FF0E9
:1019A0000000D3680B4202D04FF0010001E04FF07D
:1019B000000070470146C86880B2704701617047F7
:1019C000416170470AB1016100E041617047C16047
:1019D00070474FF4803242EA010282618161826184
:1019E00082698269704702464FF000004C4B1868CC
:1019F0004FF6807300EA030040EA021040EA01005B
:101A0000474B186070474749C8617047F0B50A46B0
:101A10004FF000031C4619460D4600F00046B6F193
:101A2000004F02D13E4EF16901E03D4E7168C0F3B6
:101A3000034583B200F44016B6F5401F08D121F0EB
:101A40007061374E766826F07066354F7E6017E01D
:101A500000F48016B6F5801F08D14FF0030606FA91
:101A600005F421EA040141F0706109E04FEA5056A3
:101A70004FEA061603FA06F621EA060141F0706104
:101A80003AB14FEA50564FEA061603FA06F646EA0E
:101A9000010100F00046B6F1004F02D1204EF16185
:101AA00001E01F4E7160F0BD30B54FF000024FEA0B
:101AB00081734FEA13744FF00F0303FA04F21A4BC9
:101AC0004FEAA10453F8243023EA0203164C4FEAEC
:101AD000A10544F8253023464FEAA10453F82430E9
:101AE0004FEA81744FEA147400FA04F443EA0403E1
:101AF0000D4C4FEAA10544F8253030BD0B49086074
:101B00007047000000080140000C01400010014037
:101B10000014014000180140001C01400020014059
:101B2000000001400000204208000140DC0020428B
:101B30000F49086070470E49486070470C4988603B
:101B400070474AF6AA200A49086070474CF6CC4014
:101B500007490860704701464FF00000044AD26808
:101B60000A4202D04FF0010001E04FF00000704740
:101B70000030004010B50121080700F02AFA0021CA
:101B80004FF0805000F025FA10BD2D4908627047D3
:101B90002B490861704701464FF00000294A106840
:101BA00020F0E00040EA010010607047264908601C
:101BB000704710B502464FF00000224B186820F025
:101BC000030040EA02001860204B1B6843F0040346
:101BD0001E4C2360012901D130BF00E020BF1B4B08
:101BE0001B6823F00403194C236010BD15480068DE
:101BF00040F00400134908600846006840F0020005
:101C000008601248006840F004001049086000BFF6
:101C100000BF30BF704701464FF00000094A5268CC
:101C20000A4202D04FF0010001E04FF0000070477F
:101C30000449096841EA8001024A116070470000C6
:101C400000000E4200700040A0000E4210ED00E0C7
:101C5000F748006840F00100F54908600846406810
:101C6000F44900EA0100F249486008460068F24978
:101C700000EA0100EE4908600846006820F4802070
:101C800008600846406820F4FE0048604FF41F00DA
:101C900088607047E649096821F48031E44A1160A0
:101CA0001146096821F480211160B0F5803F03D00E
:101CB000B0F5802F0ED106E0DD49096841F480318E
:101CC000DB4A116007E0DA49096841F4A021D84AEB
:101CD000116000E000BF00BF704710B501464FF033
:101CE0000002134610464FEA6112012A02D1D04C7D
:101CF000236806E0022A02D1CD4C236A01E0CC4CD5
:101D0000636A01F01F024FF0010404FA02F41C425E
:101D100002D04FF0010001E04FF0000010BD70B59F
:101D20004FF000042546264600BF3120FFF7D5FFBF
:101D3000064604F10104B4F5A06F01D0002EF4D0E2
:101D40003120FFF7CAFF10B14FF0010501E04FF05D
:101D50000005284670BD01464FF00000B44A1068E7
:101D600020F0F80040EAC10010607047B3490860F5
:101D7000704702464FF00000AD4B586820F47C10CD
:101D800042EA010343EA0000A94B58607047AB499F
:101D90000866704701464FF00000A54A506820F0E1
:101DA000030040EA010050607047A148406800F01D
:101DB0000C00704701464FF000009D4A506820F02B
:101DC000F00040EA01005060704701464FF000000B
:101DD000974A506820F4E06040EA01005060704784
:101DE00001464FF00000924A506820F4605040EAEB
:101DF000C1005060704731B18D4A527A42EA000208
:101E00008B4B5A7208E08A4A527A6FEA0003DBB2BF
:101E100002EA0302864B5A7270478949086070478C
:101E200001464FF00000824A506820F4404040EAEA
:101E30000100506070474FF00001824A11707C4AE7
:101E400082F82010012802D004280AD104E04FF0C3
:101E500001017C4A117005E04FF00501794A1170CB
:101E600000E000BF00BF70477749086070477049C5
:101E7000096A41EA00016E4A1162704773490860BD
:101E8000704730B54FF000010A460C460B46684DCE
:101E90006D6805F00C0121B1042905D0082927D16E
:101EA00005E06B4D056026E0694D056023E0604D5F
:101EB0006D6805F470125E4D6D6805F480344FF066
:101EC000020505EB924224B9624D02FB05F505605F
:101ED0000DE0574D6D6815F4003F04D05D4D02FBD9
:101EE00005F5056003E05A4D02FB05F5056002E0CB
:101EF000574D056000BF00BF4D4D6D6805F0F00106
:101F00004FEA1111544D6B5C056825FA03F54560E5
:101F1000474D6D6805F4E0614FEA11214E4D6B5C51
:101F2000456825FA03F58560414D6D6805F46051FB
:101F30004FEAD121484D6B5C456825FA03F5C56031
:101F40003B4D6D6805F440414FEA9131434D6B5C68
:101F5000C568B5FBF3F5056130BD31B1344A52694E
:101F600042EA0002324B5A6105E0314A526922EAE4
:101F700000022F4B5A61704731B12D4A926942EAF3
:101F800000022B4B9A6105E0294A926922EA00027D
:101F9000274B9A61704731B1254AD26942EA000263
:101FA000234BDA6105E0224AD26922EA0002204B83
:101FB000DA61704731B11E4AD26842EA00021C4B16
:101FC000DA6005E01A4AD26822EA0002184BDA60A9
:101FD000704731B1164A126942EA0002144B1A6185
:101FE00005E0134A126922EA0002114B1A61704798
:101FF0001B49086070471149C86470470C49C87193
:1020000070470B48406A40F0807009494862704749
:1020100001464FF00000064A92680A4202D04FF093
:10202000010001E04FF000007047014988727047DD
:10203000001002400000FFF8FFFFF6FE00004242E1
:10204000D800424220100240800442423C044242F6
:1020500000127A0000093D002C0000203C00002006
:102060004004424231B1554A128842EA0002534BC1
:102070001A8008E0514A12886FEA00039BB202EA14
:1020800003024E4B1A8070474D48008840F0100004
:102090004B49088070474A4800884FF6EF7100EAC4
:1020A00001004749088070474FF00001454801880A
:1020B000A0F10400008841EA0040704700B50246E4
:1020C000FFF7E2FF4FEA12403F4908803D490A808E
:1020D000FFF7E1FF00BD00B50246FFF7D5FFC2F3F1
:1020E00003403A49088001F104010A80FFF7D3FF59
:1020F00000BD00B50246FFF7C7FF4FEA1240344962
:10210000088001F104010A80FFF7C5FF00BD4FF010
:102110000000304909884FEA01714FEA11302E4919
:10212000098841EA0000704700BF2548008810F088
:10213000200FFAD07047224800884FF6F77100EA66
:1021400001001F49088000BF1D48008810F0080FDB
:10215000FAD0704701464FF00000194A12880A422F
:1021600002D04FF0010001E04FF000007047144929
:1021700009886FEA000292B201EA0201104A118056
:10218000704701464FF000000D4A128802EA010232
:10219000D0B20A4A12880A4203D010B14FF00100AF
:1021A00001E04FF000007047054909886FEA00021E
:1021B00092B201EA0201024A1180704700280040F1
:1021C000042800401C28004018280040082800402F
:1021D00020280040102800401428004010B5044674
:1021E000FE48844208D10121C014FFF7E3FE00211C
:1021F000E014FFF7DFFEC4E0B4F1804F08D1012105
:102200000846FFF7E6FE00210120FFF7E2FEB8E0F6
:10221000F348844208D101210220FFF7DAFE0021B1
:102220000220FFF7D6FEACE0EE48844208D101213F
:102230000420FFF7CEFE00210420FFF7CAFEA0E035
:10224000E948844208D101210820FFF7C2FE00219D
:102250000820FFF7BEFE94E0E448844208D1012143
:102260001020FFF7B6FE00211020FFF7B2FE88E035
:10227000DF48844208D101212020FFF7AAFE002177
:102280002020FFF7A6FE7CE0DA48844208D1012135
:102290004014FFF78FFE00216014FFF78BFE70E003
:1022A000D548844209D10121C804FFF783FE0021EB
:1022B0004FF40020FFF77EFE63E0D048844209D14E
:1022C00001210805FFF776FE00214FF48010FFF78B
:1022D00071FE56E0CA48844209D101214805FFF742
:1022E00069FE00214FF40010FFF764FE49E0C54885
:1022F000844208D101214020FFF76BFE00214020DD
:10230000FFF767FE3DE0C048844208D101218020EC
:10231000FFF75FFE00218020FFF75BFE31E0BB4846
:10232000844208D101218015FFF753FE0021A0153A
:10233000FFF74FFE25E0B648844209D10121080489
:10234000FFF738FE00214FF48030FFF733FE18E02E
:10235000B048844209D101214804FFF72BFE002137
:102360004FF40030FFF726FE0BE0AB48844208D163
:1023700001218804FFF71EFE00214FF48020FFF7A3
:1023800019FE10BD4FF000020288944B98420ED007
:10239000984B98420BD0B0F1804F08D0904B9842A8
:1023A00005D0904B984202D08F4B984206D14FF601
:1023B0008F7302EA03024B8843EA02028B4B984276
:1023C00009D08B4B984206D04FF6FF4302EA030236
:1023D000CB8843EA020202808B8883850B880385C1
:1023E0007E4B98420BD0834B984208D0884B984242
:1023F00005D0884B984202D0874B984201D10B7A86
:1024000003864FF001038382704770B54FF00004DC
:1024100022461346058C4FF6FE7605EA060505842E
:10242000028C8388048B4FF68F7504EA05044FF6FF
:10243000FC7504EA05040D8845EA04044FF6FD75B1
:1024400002EA05020D8945EA02024D8845EA0202C8
:10245000624DA8420BD0674DA84208D06C4DA842EF
:1024600005D06C4DA84202D06B4DA8421BD14FF64F
:10247000F77502EA05024D8945EA02024FF6FB753F
:1024800002EA05028D8845EA02024FF6FF6503EA7B
:1024900005034FF6FF5503EA05038D8945EA03035B
:1024A000CD8945EA030383800483CD888586028431
:1024B00070BD70B54FF0000422461346058C4FF6F0
:1024C000EF7605EA06050584028C8388048B48F6BE
:1024D000FF7504EA05044FF6FF4504EA05040D887C
:1024E0004FEA056544EA15444FF6DF7502EA050236
:1024F0000D894FEA055542EA15424D884FEA0555C8
:1025000042EA1542354DA84202D03A4DA84223D1A5
:102510004FF67F7502EA05024D894FEA055542EAFA
:1025200015424FF6BF7502EA05028D884FEA055540
:1025300042EA15424FF6FF3503EA05034FF2FF75F5
:1025400003EA05038D894FEA854543EA1543CD89A2
:102550004FEA854543EA154383800483CD88058788
:10256000028470BD70B54FF0000422461346058CFE
:102570004FF6FF6605EA06050584028C8388848B86
:102580004FF68F7504EA05044FF6FC7504EA05045E
:102590000D8845EA04044FF6FF5502EA05020D894D
:1025A0004FEA056542EA15424D884FEA056542EA61
:1025B00015420A4DA84202D00E4DA84244D14FF216
:1025C000FF7502EA05024D894FEA056542EA1542A8
:1025D0004FF6FF3502EA05028D881FE0002C01400E
:1025E0000004004000080040000C004000100040C3
:1025F0000014004000340140004C014000500140F4
:102600000054014000180040001C00400020004021
:102610000040014000440140004801404FEA056588
:1026200042EA15424EF6FF7503EA05034DF6FF75C3
:1026300003EA05038D894FEA055543EA1543CD8921
:102640004FEA055543EA154383808483CD88858707
:10265000028470BD70B54FF0000213461446058C1D
:102660004EF6FF7605EA06050584038C8488828B86
:1026700048F6FF7502EA05024FF6FF4502EA050239
:102680000D884FEA056542EA15424DF6FF7503EAEB
:1026900005030D894FEA057543EA15434D884FEA56
:1026A000057543EA1543FB4DA84202D0FA4DA842F6
:1026B00008D14BF6FF7504EA05048D894FEA85556C
:1026C00044EA154484808283CD88A0F84050038476
:1026D00070BD828B4FF2FF3302EA03028283828B4A
:1026E0004FEA016342EA134282837047F0B50C4619
:1026F00015464FF0000211460E46078C4EF6FF7C41
:1027000007EA0C070784828B018C4FEA04774FEAB3
:10271000174640F6FF4702EA07024FEA056742EA1A
:1027200017424FEA037742EA1742DA4FB8420ED017
:10273000D94FB8420BD0B0F1804F08D0D74FB84234
:1027400005D0D74FB84202D0D64FB84208D14DF687
:10275000FF7701EA070146F4805747EA010107E0E5
:1027600047F6FF5701EA070144F4805747EA0101A1
:1027700082830184F0BD828B4FF6F37302EA030279
:102780008283828B42EA010282837047F0B50C4655
:1027900015464FF0000211460E46078C4FF6FF6CAF
:1027A00007EA0C070784828B018C4FEA04674FEA23
:1027B00017464FF60C7702EA07024FEA035745EA3D
:1027C000174747EA0202B34FB8420ED0B24FB842A1
:1027D0000BD0B0F1804F08D0B04FB84205D0B04F09
:1027E000B84202D0AF4FB84208D14FF6FF5701EAC6
:1027F000070146F4807747EA010107E04FF2FF57EF
:1028000001EA070144F4807747EA010182830184E9
:10281000F0BD028B4FF2FF3302EA03020283028B08
:102820004FEA016342EA134202837047F0B50C4657
:1028300015464FF0000211460E46078C4FF6EF7C0E
:1028400007EA0C070784028B018C4FEA04574FEA12
:10285000174640F6FF4702EA07024FEA037742EACB
:1028600017424FEA056742EA17428A4FB8420ED034
:10287000894FB8420BD0B0F1804F08D0874FB84293
:1028800005D0874FB84202D0864FB84208D14FF6E4
:10289000DF7701EA070146F0100747EA010107E088
:1028A0004FF65F7701EA070144F0100747EA01019C
:1028B00002830184F0BD028B4FF6F37302EA030238
:1028C0000283028B42EA010202837047F0B50C4694
:1028D00015464FF000021146068C4FF6FE7706EAC9
:1028E00007060684028B018C4FF60C7602EA06027C
:1028F0004FEA035645EA164646EA0202654EB042E2
:102900000ED0654EB0420BD0B0F1804F08D0634E70
:10291000B04205D0624EB04202D0624EB04208D101
:102920004FF6FD7601EA060144F0010646EA010190
:1029300007E04FF6F57601EA060144F0010646EAA3
:10294000010102830184F0BD70B505460C46514873
:1029500085420ED0504885420BD0B5F1804F08D04B
:102960004E48854205D04E48854202D04D488542AA
:1029700000D100E000BF208850B92389A288618877
:102980002846FFF7A3FFE1882846FFF794FF25E0DC
:10299000208804280AD12389A28861882846FFF765
:1029A00045FFE1882846FFF734FF17E02088082814
:1029B0000AD12389A28861882846FFF7E7FEE188CB
:1029C0002846FFF7D8FE09E02389A28861882846B7
:1029D000FFF78CFEE1882846FFF77BFE70BD2DE9EE
:1029E000F04105460C464FF000064FF001076088A5
:1029F00010B94FF0020601E04FF00006A088012850
:102A000002D14FF0020701E04FF001072088A0B982
:102A10002389A28861882846FFF758FFE188284665
:102A2000FFF749FF23893A4631462846FFF7FEFE65
:102A3000E1882846FFF7EDFE13E02389A28861882C
:102A40002846FFF7F3FEE1882846FFF7E2FE2389D8
:102A50003A4631462846FFF739FFE1882846FFF716
:102A60002AFFBDE8F0810A884B8842EA03028B887E
:102A700042EA0302CB8842EA03020B8942EA0302DC
:102A80004B8942EA03028B8942EA0302A0F8442000
:102A900070470000002C0140003401400004004059
:102AA00000080040000C00404FF6FF7181804FF09D
:102AB00000010180C1804180017270474FF0000128
:102AC000018041808180C180018141818181C181FA
:102AD00070474FF00001018041804FF0010181807B
:102AE0004FF00001C180018170474FF0000101806B
:102AF00041808180C180018141818181704721B104
:102B0000028842F00102028005E002884FF6FE735F
:102B100002EA03020280704731B1B0F8442042F467
:102B20000042A0F8442005E0B0F84420C2F30E02B1
:102B3000A0F84420704710B522B1838943EA01030D
:102B4000838106E083896FEA0104A4B203EA0403E7
:102B5000838110BD8182704741EA0203A0F84830AA
:102B6000704710B522B1838943EA0103838106E0EF
:102B700083896FEA0104A4B203EA0403838110BDD0
:102B800001894FF6F87201EA0201018170470A4695
:102B90004FF0000101894FF68F7301EA030141EA0A
:102BA00002010181704730B504460D462946204692
:102BB000FFF7EDFF208940F00700208130BD2DE9AF
:102BC000F04104460D4616461F46602D06D13B4691
:102BD000012231462046FFF729FE05E03B4601224F
:102BE00031462046FFF772FE29462046FFF7CFFF09
:102BF000208940F007002081BDE8F08130B50C4607
:102C00004FF000010189C9B24FEA036542EA154558
:102C100045EA040545EA0101018130BD2DE9F04195
:102C200005460E46174698464FF0000443463A467E
:102C300031462846FFF7E2FF2C894FF6F87004EA88
:102C4000000444F007044FF68F7004EA000444F0D7
:102C500070042C81BDE8F081F0B504460D4616469F
:102C60001F463B46324629462046FFF7C7FF2089CC
:102C700040F480402081F0BD0185828270470A4681
:102C80004FF0000101884FF68F7301EA030141EA1A
:102C9000020101807047F0B50C4615461E464FF004
:102CA00000010A460B460189028B038C4FF6F87728
:102CB00001EA070141EA04014FF6FC4702EA070274
:102CC00040F2011742EA07024FF6DD7703EA0703F5
:102CD0004FEA065745EA174747EA03030181028393
:102CE0000384F0BD0A464FF00001018B4FF68F734D
:102CF00001EA030141EA0201018370470A464FF0ED
:102D00000001018B48F6FF7301EA03014FEA0263F9
:102D100041EA1341018370470A464FF00001818B5D
:102D20004FF68F7301EA030141EA02018183704784
:102D30000A464FF00001818B48F6FF7301EA030158
:102D40004FEA026341EA13418183704721B102884F
:102D500042F08002028005E002884FF67F7302EAAB
:102D600003020280704721B1828842F0040282800F
:102D700005E082884FF6FB7302EA03028280704707
:102D800021B1828842F00802828005E082884FF6F5
:102D9000F77302EA03028280704721B1828842F011
:102DA0000102828005E082884FF6FE7302EA030288
:102DB000828070470A464FF00001018B4FF6F7738F
:102DC00001EA030141EA0201018370470A464FF01C
:102DD0000001018B4FF2FF7301EA03014FEA026326
:102DE00041EA1341018370470A464FF00001818B8D
:102DF0004FF6F77301EA030141EA0201818370474C
:102E00000A464FF00001818B4FF2FF7301EA030184
:102E10004FEA026341EA1341818370470A464FF04B
:102E20000001018B4FF6FB7301EA030141EA020145
:102E3000018370470A464FF00001018B4FF6FF33C4
:102E400001EA03014FEA026341EA1341018370473B
:102E50000A464FF00001818B4FF6FB7301EA030134
:102E600041EA0201818370470A464FF00001818BDD
:102E70004FF6FF3301EA03014FEA026341EA1341CF
:102E8000818370470A464FF00001018B4FF67F7334
:102E900001EA030141EA0201018370470A464FF04B
:102EA0000001018BC1F30E014FEA026341EA1341B5
:102EB000018370470A464FF00001818B4FF67F7304
:102EC00001EA030141EA0201818370470A464FF09B
:102ED0000001818BC1F30E014FEA026341EA134105
:102EE000818370470A464FF00001018C4FF6FD7355
:102EF00001EA030141EA0201018470470A464FF0EA
:102F00000001018C4FF6F77301EA030141EA020167
:102F1000018470470A464FF00001018C4FF6DF73C1
:102F200001EA03014FEA025341EA13410184704769
:102F30000A464FF00001018C4FF67F7301EA03014E
:102F40004FEA025341EA1341018470470A464FF0A9
:102F50000001018C4FF6FF5301EA03014FEA0263BF
:102F600041EA1341018470470A464FF00001018C89
:102F70004FF2FF7301EA03014FEA026341EA134192
:102F8000018470470A464FF00001018C4DF6FF7333
:102F900001EA03014FEA027341EA134101847047D9
:102FA00030B54FF000034FF0010404FA01F4A3B26E
:102FB000048C6FEA0305ADB204EA05040484048CB2
:102FC00002FA01F5ADB244EA0504048430BD30B51F
:102FD0004FF000034FF0040404FA01F4A3B2048C90
:102FE0006FEA0305ADB204EA05040484048C02FA16
:102FF00001F5ADB244EA0504048430BD70B5034662
:103000004FF000000446184600F118004FF001058B
:1030100005FA01F5ACB21D8C6FEA0406B6B205EAFA
:1030200006051D8409B108290AD100EB6100056875
:1030300025F070050560056845EA020505600EE0AB
:10304000A1F10405ADB200EB6500056825F4E0458B
:10305000056005684FEA026645EA1645056070BDE1
:1030600021B1028842F00202028005E002884FF698
:10307000FD7302EA03020280704721B1028842F028
:103080000402028005E002884FF6FB7302EA0302A5
:103090000280704721B1828842F08002828005E080
:1030A00082884FF67F7302EA0302828070470288AB
:1030B0004FF6F77302EA03020280028842EA010235
:1030C0000280704782884FF68F7302EA0302828083
:1030D000828842EA01028280704702894FF6F873C3
:1030E00002EA03020281028942EA01020281704778
:1030F00002894FF67F7302EA03020281028942EAE3
:103100000102028170478184704781857047818602
:1031100070470187704781877047A0F8401070475B
:1031200002884FF6FF4302EA03020280028842EA65
:103130000102028070470146888E70470146088F61
:1031400070470146888F70470146B1F840007047CC
:103150000146888C70470146088D704702464FF043
:103160000000138A0B4202D04FF0010001E04FF043
:10317000000070476FEA01020282704730B50246D4
:103180004FF0000003460446158A05EA01039589BD
:1031900005EA01041BB114B14FF0010001E04FF04A
:1031A000000030BD6FEA01020282704710B504468C
:1031B000F848844209D101218803FEF7FBFE002173
:1031C0004FF48040FEF7F6FE32E0F348844209D126
:1031D00001214804FEF7FDFE00214FF40030FEF708
:1031E000F8FE25E0ED48844209D101218804FEF76C
:1031F000F0FE00214FF48020FEF7EBFE18E0E848D7
:10320000844209D10121C804FEF7E3FE00214FF4F6
:103210000020FEF7DEFE0BE0E248844208D10121E7
:103220000805FEF7D6FE00214FF48010FEF7D1FE10
:1032300010BD2DE9F04786B005460E464FF000045C
:10324000A24600BFA1462746B08900B100BF2F4665
:103250002C8A4CF6FF7004EA0004F08840EA04046B
:103260002C82AC894EF6F31004EA0004B088318950
:1032700040EA0100718940EA010040EA0404AC819F
:10328000AC8A4FF6FF4004EA0004B08940EA040427
:10329000AC8201A8FEF7F5FDBE48874202D1DDF8F9
:1032A00010A001E0DDF80CA0A88910F4004F09D0AF
:1032B0000AEBCA0000EB0A1031684FEA4101B0FB8B
:1032C000F1F808E00AEBCA0000EB0A1031684FEA97
:1032D0008101B0FBF1F84FF06400B8FBF0F04FEA69
:1032E00000144FEA14104FF0640101FB1089A88903
:1032F00010F4004F0AD04FF0320000EBC900B0FBD1
:10330000F1F000F0070040EA04040BE04FF0320057
:1033100000EB09104FF06401B0FBF1F000F00F007A
:1033200040EA04042C8106B0BDE8F0874FF4165142
:1033300001604FF000018180C18001814FF00C01DC
:1033400041814FF000018181704710B502464FF076
:103350000000108A4FF2FF0300EA03000B884C883C
:1033600043EA04038C8843EA0403CC8843EA040359
:1033700043EA0000108210BD4FF00001018041803F
:103380008180C180704721B1828942F400528281DC
:1033900005E082894DF6FF7302EA030282817047DD
:1033A000F0B503464FF00004264625462046A1F519
:1033B00010676A3F00D100BF1846C1F3421401F004
:1033C0001F064FF0010707FA06F5012C02D100F1A4
:1033D0000C0006E0022C02D100F1100001E000F127
:1033E000140022B1076847EA0507076003E0076891
:1033F00027EA05070760F0BD10B522B1838A43EACA
:103400000103838206E0838A6FEA0104A4B203EA1F
:103410000403838210BD028A4FF6F07302EA0302AE
:103420000282028A42EA01020282704782894FF2D6
:10343000FF7302EA03028281828942EA01028281E9
:10344000704721B1828942F00202828105E08289BF
:103450004FF6FD7302EA030282817047028A4FF63B
:10346000DF7302EA03020282028A42EA0102028256
:10347000704721B1028A42F48042028205E0028A4A
:103480004BF6FF7302EA030202827047C1F308029F
:103490008280704701468888C0F3080070478189A0
:1034A00041F0010181817047028BD2B20283028B0D
:1034B00042EA012202837047028B02F47F420283B8
:1034C000028B42EA01020283704721B1828A42F0F4
:1034D0002002828205E0828A4FF6DF7302EA03024D
:1034E0008282704721B1828A42F01002828205E016
:1034F000828A4FF6EF7302EA03028282704721B19B
:10350000828A42F00802828205E0828A4FF6F773CF
:1035100002EA03028282704721B1828942F40042AA
:10352000828103E08289C2F30E028281704721B159
:10353000828A42F40062828205E0828A4FF2FF733F
:1035400002EA030282827047828A4FF6FB7302EA24
:1035500003028282828A42EA01028282704721B19A
:10356000828A42F00202828205E0828A4FF6FD736F
:1035700002EA03028282704702464FF00000B1F572
:10358000007F00D100BF13880B420DD04FF0010027
:103590000CE00000003801400044004000480040BA
:1035A000004C0040005000404FF00000704701F414
:1035B0000072B2F5007F00D100BF6FEA0102028005
:1035C000704770B502464FF0000423461D4618466A
:1035D000A1F510666A3E00D100BFC1F3421501F0AB
:1035E0001F034FF0010606FA03F3012D03D196895C
:1035F00006EA030308E0022D03D1168A06EA030354
:1036000002E0968A06EA03034FEA21244FF00106FE
:1036100006FA04F4168806EA04041BB114B14FF04C
:10362000010001E04FF0000070BD10B54FF0000246
:103630001346A1F510646A3C00D100BF4FEA212275
:103640004FF0010404FA02F4A3B26FEA0304048009
:1036500010BD00004FF0000108466D4A126842F4A8
:1036600080326B4B1A6000BF694A126802F4003066
:1036700001F1010110B9B1F5A06FF5D1644A1268EA
:1036800012F4003F02D04FF0010001E04FF00000C3
:10369000012842D15F4A126842F010025D4B1A6065
:1036A0001A46126822F003021A601A46126842F0A3
:1036B00002021A60564A5268554B5A601A465268BE
:1036C0005A601A46526842F480625A601A4652683A
:1036D00022F47C125A601A46526842F4E8125A6088
:1036E0001A46126842F080721A6000BF484A126897
:1036F00012F0007FFAD0464A526822F00302444B8F
:103700005A601A46526842F002025A6000BF404AAC
:10371000526802F00C02082AF9D1704710B5FFF781
:1037200099FF10BD10B53A48006840F001003849D3
:10373000086008464068384900EA0100344948609A
:1037400008460068354900EA01003149086008462A
:10375000006820F4802008600846406820F4FE00DD
:1037600048604FF41F008860FFF7D8FF4FF00060FB
:103770002B49086010BD10B54FF000010846024605
:10378000234B5B6803F00C0121B1042906D0082902
:103790002CD107E0234B244C23602BE0214B224CFF
:1037A000236027E01A4B5B6803F47010184B5B68CA
:1037B00003F480324FF0020303EB90402AB91B4B15
:1037C00000FB03F3184C23600FE0114B5B6813F40C
:1037D000003F05D0154B00FB03F3134C236004E0BE
:1037E000104B00FB03F3104C236003E00D4B0E4C19
:1037F000236000BF00BF064B5B68C3F303130C4C90
:10380000E15C094B1B6823FA01F3074C236010BDF0
:1038100000100240002002400000FFF8FFFFF6FE0B
:1038200008ED00E000127A004000002000093D0091
:103830004400002038B50446754951F824004FF083
:103840000101FEF799FB734830F81400ADF8000051
:103850004FF014008DF803004FF002008DF80200C5
:103860006D4951F824006946FDF7ECFF38BD694900
:1038700031F81010684A52F82020516170476549AC
:1038800031F81010644A52F82020116170476249E3
:1038900051F82010C9685F4A32F8102081EA02010D
:1038A0005D4A52F82020D16070477FB504460D462E
:1038B0005A4951F824004FF00101FEF75DFB4FF02B
:1038C00004008DF80F00564830F81400ADF80C00D5
:1038D000544951F8240003A9FDF7B4FF012D2FD15D
:1038E000514A32F81420D1B2504A32F81420D0B2E2
:1038F000FEF7DAF84E4830F8140001904FF000005F
:103900008DF808004FF010008DF809004FF001000D
:103910008DF80A0001A8FDF7A2FE464830F8140011
:10392000C0B28DF800004FF00F008DF801008DF847
:1039300002004FF001008DF803006846FDF7A6FD78
:103940007FBD10B50446364A32F81410354A52F895
:103950002400FEF713F810BD38B504460D4636496D
:1039600051F82410354A52F8242041EA020141F06E
:1039700001004FF00101FEF7FFFA34B9304951F868
:1039800024000121FEF7F8FA05E02D4951F8240042
:103990000121FEF700FB4FF018008DF803002948C5
:1039A00030F81400ADF800004FF003008DF802006D
:1039B000254951F824006946FDF744FF4FF0040003
:1039C0008DF80300214830F81400ADF800002049BC
:1039D00051F824006946FDF735FF1E4951F82400CF
:1039E0002946FFF726FC1B4951F824000121FFF767
:1039F000CAFC38BD70B505460E4640F22551164842
:103A0000FFF7DFFD18B11448FFF744FD044670BD11
:103A1000747200086C72000854000020887200085C
:103A20008472000864000020907200088E72000802
:103A30008C72000892720008A0720008AC72000834
:103A400094720008B872000874000020BE7200086A
:103A500080000020680000200048004006488047A1
:103A600006480047FEE7FEE7FEE7FEE7FEE7FEE763
:103A7000FEE7FEE7FEE7FEE7253700083101000814
:103A800001464FF0FF3011B94FF0000002E001296C
:103A900000D108467047014609B9FE4805E00129F2
:103AA00001D1FD4801E04FF00000704770B50546B8
:103AB0002846FFF7E5FF0446FCB9F848C4EBC4010B
:103AC000F74A42F821004FF48060C4EBC40102EBD6
:103AD00081014860FDF789F900EB80004FEA800022
:103AE0004FF47A71B0FBF1F000F10100C4EBC401B6
:103AF000EB4A02EB8101886120E0012C1ED1E948EC
:103B0000C4EBC401E64A42F821004FF48060C4EBE4
:103B1000C40102EB81014860FDF767F900EB80000A
:103B20004FEA80004FF47A71B0FBF1F000F1010030
:103B3000C4EBC401DA4A02EB81018861C4EBC40022
:103B4000D74951F82000C4EBC401D54A02EB8101EA
:103B50008860C4EBC400114651F82000C4EBC401D6
:103B600002EB8101C8604FF00000C4EBC40102EB1E
:103B700081014861C4EBC400114601EB80008069FB
:103B8000012806D84FF00200C4EBC40102EB81010A
:103B9000886170BD2DE9F04107460D4616464FF08D
:103BA00000040DE0295D3846FFF770FC00BF40219E
:103BB0003846FFF7E1FC0028F9D004F1010084B297
:103BC000B442EFDB2046BDE8F0812DE9F041074625
:103BD0000E4614463846FFF75EFF8046256812E021
:103BE0002068401B315C4046FFF750FC00BF80213D
:103BF0004046FFF7C1FC0028F9D080214046FFF77E
:103C0000D6FCA5F10105002DEAD1BDE8F0812DE932
:103C1000F84F8346894617464FF0010000904FF059
:103C20000005D7F800A05846FFF72AFF0446C4EB6A
:103C3000C4009B4901EB80000569002D7DD0C4EBD9
:103C4000C40001EB8000406930B14FF002000090E9
:103C50004FF000003860ECE04FF003000090C4EB40
:103C6000C4008F4901EB80000569554500D95546D0
:103C7000C4EBC4008A4901EB80008068C4EBC40136
:103C8000874A02EB8101C968884224D9C4EBC40089
:103C900002EB80002A46C168484602F09BFBC4EB59
:103CA000C4007F4901EB8000C0682844C4EBC40114
:103CB0007B4A02EB8101C860C4EBC400114601EBF2
:103CC00080000069A0EB0500C4EBC40102EB810198
:103CD00008613D60ADE0C4EBC400714951F82000BB
:103CE000C4EBC4016E4A02EB810149680844C4EB8D
:103CF000C40102EB8101C968A0EB01082E464645CC
:103D000043D8C4EBC40002EB80003246C168484689
:103D100002F060FBC4EBC400614901EB8000C068A5
:103D20003044C4EBC4015E4A02EB8101C860C4EBBD
:103D3000C400114651F8200000E073E0C4EBC40158
:103D400002EB810149680844C4EBC40102EB810124
:103D5000C968884209D8C4EBC400114651F8200054
:103D6000C4EBC40102EB8101C860C4EBC4004C4940
:103D700001EB80000069A0EB0600C4EBC401484AD7
:103D800002EB810108613D604BE0C4EBC400444A92
:103D900002EB80004246C168484602F01BFBC4EBC0
:103DA000C4003F4951F82000C4EBC4013C4A02EB77
:103DB0008101C860C4EBC400114601EB80000069BA
:103DC000A0EB0800C4EBC40102EB81010861A6EB83
:103DD0000806C4EBC402324B03EB820209EB080075
:103DE000D168324602F0F6FAC4EBC4002C4901EB6C
:103DF0008000C0683044C4EBC401294A02EB810151
:103E0000C860C4EBC400114601EB80000069A0EB60
:103E10000600C4EBC40102EB8101086106EB080057
:103E2000386006E04FF0000A504638604FF001005D
:103E300000900098BDE8F88F2DE9F04106468846CD
:103E40003046FFF71DFE04463046FFF724FE0746C6
:103E50008AE03846FFF71EFBC5B2C4EBC400104928
:103E600001EB8000C168C4EBC4000D4A02EB800086
:103E7000806800F10100814229D0C4EBC4001146E2
:103E800001EB8000C068C4EBC40152F821108842E5
:103E90001FD109E0003801400044004060020020CA
:103EA000600A002060060020C4EBC400114651F8EF
:103EB0002000C4EBC40102EB810149680844401EA4
:103EC000C4EBC40102EB81018968884201D1BDE8DD
:103ED000F081C4EBC4009E4901EB80008168C4EB13
:103EE000C4009B4A02EB8000806800F10100C4EB33
:103EF000C402974B03EB820290600D70C4EBC400C8
:103F0000194601EB8000006900F10100C4EBC40117
:103F10001A4602EB81010861C4EBC400114651F856
:103F20002000C4EBC40102EB810149680844C4EBE2
:103F3000C40102EB81018968884209D8C4EBC4003E
:103F4000114651F82000C4EBC40102EB81018860E6
:103F5000C4EBC4007E4901EB80008069C4EBC4015E
:103F60007B4A02EB8101486140F225513846FFF758
:103F700003FB01283FF46DAF00BFA8E72DE9F04136
:103F800006460D463046FFF77BFD04463046FFF7F8
:103F900082FD0746C4EBC4006D4901EB8000C16897
:103FA000C4EBC4006A4A02EB8000806800F10100A3
:103FB00081421ED0C4EBC400114601EB8000C068F2
:103FC000C4EBC40152F82110884214D1C4EBC400E0
:103FD000114651F82000C4EBC40102EB810149688D
:103FE0000844401EC4EBC40102EB81018968884289
:103FF00001D1BDE8F081C4EBC400554901EB80005C
:104000008168C4EBC400524A02EB8000806800F172
:104010000100C4EBC4024E4B03EB820290600D70B2
:10402000C4EBC400194601EB8000006900F10100F7
:10403000C4EBC4011A4602EB81010861C4EBC40061
:10404000114651F82000C4EBC40102EB810149681C
:104050000844C4EBC40102EB81018968884209D895
:10406000C4EBC400114651F82000C4EBC40102EBBC
:1040700081018860C4EBC400354901EB8000806990
:10408000C4EBC401324A02EB8101486100BFB0E7D2
:1040900070B505460E462846FFF7F2FC0446C4EB11
:1040A000C4002B4901EB8000406960B1C4EBC4003F
:1040B00001EB80004069A0F10100C4EBC401244A77
:1040C00002EB8101486170BD00B585B0012144F269
:1040D0000400FDF751FF4FF40070ADF810004FF0F1
:1040E00018008DF813004FF003008DF8120004A99A
:1040F0001848FDF7A7FB4FF48060ADF810004FF0B3
:1041000004008DF8130004A91248FDF79BFB4FF43F
:10411000E13000904FF00000ADF80400ADF806006B
:10412000ADF80800ADF80C004FF00C00ADF80A0037
:1041300069460948FFF77DF8012240F225510648FB
:10414000FFF72EF901210448FFF71DF905B000BD66
:10415000600A002000080140003801402DE9F04FBE
:1041600002460D464FF000018C46634664460E46FB
:1041700012B90020BDE8F08F01E002F101021078D1
:104180002028FAD010782D2804D14FF0010102F137
:10419000010204E010782B2801D102F1010210780D
:1041A000302802DB1078392801DD0020E2E74FF0EB
:1041B00001072CE04FF00A0C00209846A8FB0C9B4E
:1041C00004FB0CBC03FB00CC107819EB00084CF18D
:1041D000000C4FF03009B8EB09036CF1000431B169
:1041E0004FF0004C0020BCEB030CA04107DB51B9A1
:1041F0006FF0004C0020BCEB030CA04103DA4FF041
:1042000000073846B6E702F1010206F10106107810
:10421000302804DB1078392801DCAE42CADB19B142
:104220004FF0FF30A3FB003C1846A3E710B54FF456
:104230000061FE48FDF7C4FB10BD10B54FF40061EE
:10424000FA48FDF7BBFB10BD10B54FF48061F8488C
:1042500002F0D9F810BDF8B506464FF48060009022
:104260006A46F3494FF00000FFF7D1FC032801D064
:104270000120F8BD0098002879D0EEA1EC4802F0AA
:10428000DCF80746002F73D04FF000044FF0020215
:104290004FF02C01384600F041FA04468CB104F18D
:1042A00001042078412802D02078612803D14FF002
:1042B0000100B07205E04FF00000B0724FF0030053
:1042C000D7E74FF000044FF001024FF02C013846C1
:1042D00000F024FA04466CB104F101044FF000052B
:1042E00005E014F8010B705505F10100C5B2207806
:1042F0002C28F6D14FF000044FF003024FF02C01B0
:10430000384600F00BFA04467CB104F101044FF08A
:10431000000507E014F8011B06F10B00415505F1FB
:104320000100C5B220782C28F4D14FF000044FF0E2
:1043300004024FF02C01384600F0F0F9044634B185
:1043400004F1010420782C2801D0207830754FF03A
:1043500000044FF005024FF02C01384600F0DEF962
:1043600004468CB104F101044FF0000509E07FE040
:1043700078E014F8011B06F11500415505F1010024
:10438000C5B220782C28F4D14FF000044FF006027B
:104390004FF02C01384600F0C1F9044634B104F165
:1043A000010420782C2801D02078F0774FF0000409
:1043B0004FF007024FF02C01384600F0AFF90446E9
:1043C000A4B104F101044FF0000507E014F8011B4B
:1043D00006F12000415505F10100C5B220782C28D6
:1043E000F4D14FF0000106F1200041554FF00004D8
:1043F0004FF008024FF02C01384600F08FF90446C8
:10440000A4B104F101044FF0000507E014F8011B0A
:1044100006F13000415505F10100C5B220782C2885
:10442000F4D14FF0000106F1300041554FF0000487
:104430004FF009024FF02C01384600F06FF90446A6
:1044400094B104F101044FF0000507E014F8011BDA
:1044500006F14000415505F10100C5B220782C2835
:10446000F4D101E0022004E77148009901F0CBFF8C
:104470000020FEE60FB42DE9F0418CB0DDF890800D
:10448000022113A8FFF76AFE019002210DF14A00F4
:10449000FFF764FE0290022112A8FFF75FFE03906F
:1044A000022122A8FFF75AFE049002210DF18A0092
:1044B000FFF754FE0590022123A8FFF74FFE00F1FD
:1044C000640006904FF00000099001A801F032FF4F
:1044D000C8F800009DF85C004E2839D102210DF18A
:1044E0005500FFF73BFE044602210DF15300FFF794
:1044F00035FEC0EB001004EB800447F2305044431B
:10450000012116A8FFF72AFE40F27711484304EB79
:10451000C00401210DF15900FFF720FEC0EB00108F
:1045200000EB800004EB800401210DF15A00FFF73D
:1045300015FEC0EB001004EB400401210DF15B00FF
:10454000FFF70CFE00EB40002044C8F804003EE0FA
:104550009DF85C0053283AD102210DF15500FFF778
:10456000FDFD044602210DF15300FFF7F7FDC0EBFE
:10457000001004EB800447F230504443012116A898
:10458000FFF7ECFD40F27711484304EBC004012132
:104590000DF15900FFF7E2FDC0EB001000EB8000C9
:1045A00004EB800401210DF15A00FFF7D7FDC0EBA9
:1045B000001004EB400401210DF15B00FFF7CEFD7C
:1045C00000EB40002044C0F10000C8F804009DF852
:1045D0006700452841D1022118A8FFF7BFFD044616
:1045E00003210DF15D00FFF7B9FDC0EB001004EBF6
:1045F000800447F23050444301210DF16300FFF77E
:10460000ADFD40F27711484304EBC004012119A825
:10461000FFF7A4FDC0EB001000EB800004EB80046A
:1046200001210DF16500FFF799FD07E00010014041
:10463000980A0020244750524D430000C0EB001060
:1046400004EB400401210DF16600FFF787FD00EB4C
:1046500040002044C8F808003DE09DF86700572856
:1046600039D1022118A8FFF779FD044603210DF185
:104670005D00FFF773FDC0EB001004EB800447F210
:104680003050444301210DF16300FFF767FD40F214
:104690007711484304EBC004012119A8FFF75EFD20
:1046A000C0EB001000EB800004EB800401210DF151
:1046B0006500FFF753FDC0EB001004EB400401213F
:1046C0000DF16600FFF74AFD00EB40002044C0F109
:1046D0000000C8F808001AA802F0B3FD06460D4A0B
:1046E0000D4B01F0F4FE044601F061FF88F80C0068
:1046F0001EA802F0A6FD044601F059FFA8F80E001E
:104700009DF8520088F810000CB0BDE8F0015DF88B
:1047100014FB00009A9999999999FD3F2DE9F04170
:1047200006460F4614464FF00005B046304601F0ED
:10473000A3FEA04202D20020BDE8F08108E0394685
:10474000404601F090FE054605B905E005F1010877
:104750002000A4F10104F2D100BF2846ECE72DE9C6
:10476000F04705460F469046384601F085FE8246E2
:10477000384601F081FEA8EB000000F101064FF081
:104780000009002E11DD4C4608E028195246394632
:1047900001F07AFE00B903E004F10104B442F4DB55
:1047A00000BFB44201DA05EB04094846BDE8F087D2
:1047B000F0B505460E464FF000042F469A4201D947
:1047C0000020F0BD1AE04FF0000105E0785CB04237
:1047D00000D103E001F101019942F7D300BF9942F2
:1047E00006D207EB010401F10100A3EB000301E095
:1047F0004FF0000404B905E004F101071000A2F134
:104800000102E0D100BF2046DBE770B503460C464D
:104810004FF000000546F4B194421CD901460FE068
:104820005E5C302E05DB5E5C392E02DC05F1010595
:1048300001E04FF00005954200D303E001F10101D2
:10484000A142EDD300BF954205D303EB0106A6EBD1
:10485000020606F1010070BD30B502460B464FF06E
:1048600000000446014622E0555C412D06DB555C04
:10487000462D03DC555CA5F1370412E0555C612D33
:1048800006DB555C662D03DC555CA5F1570408E09A
:10489000555C302D05DB555C392D02DC555CA5F1EE
:1048A00030044FEA001040EA040001F1010199428E
:1048B000DAD330BD70470020704708B501210420CD
:1048C000FDF75AFB4FF00200ADF800004FF010006A
:1048D0008DF803004FF002008DF802006946F7489A
:1048E000FCF7B0FF08BD10B54FF40071F448FDF7B8
:1048F00065F810BD10B54FF40071F148FDF760F890
:1049000010BD10B50221ED48FDF75AF84FF496702E
:10491000FCF71BFB0221E948FDF750F84FF49670B5
:10492000FCF713FB10BD10B50221E448FDF748F871
:1049300040F6B830FCF71BFB0221E048FDF73EF8DB
:1049400040F6B830FCF713FB10BD10B54FF4806192
:10495000DC4801F058FD10BD2DE9F84304460D4632
:1049600016464FF00F07DFF85C834FF00009009602
:104970006A4621464FF00100FFF727F91DB318E002
:104980004FF4806000904FF00A00FCF7DEFA6A46B0
:1049900041460120FFF73BF98146009848B1B9F143
:1049A000030F06D129464046009AFFF7D8FE00B112
:1049B00004E0A7F10100C0B20700E1D100BF17B9C0
:1049C0000120BDE8F8830020FBE72DE9F84F0646FB
:1049D0000F4690461C46DDF828904FF00F0AB94D5F
:1049E0004FF0000BCDF800806A4631464FF00100D1
:1049F000FFF7EBF827E04FF4806000904FF00A00DB
:104A0000FCF7A3FA6A4629460120FFF700F983461E
:104A1000009890B1BBF1030F0FD104B12560B9F13B
:104A2000000F02D00098C9F800002FB1394628467F
:104A300001F003FD08B10CE00BE0BAF1000F02D168
:104A40000120BDE8F88FAAF10100C0B25FEA000AB8
:104A5000D1D100BF0020F4E710B509229AA19C48EB
:104A6000FFF77AFF08B9032010BD092299A19848E1
:104A7000FFF772FF08B90420F6E70120F4E770B5EC
:104A80000446964801F0F8FC0546FFF75EFF2A460B
:104A900093499248FFF760FF98BB01222C21894877
:104AA000FFF73CFE8F4908600846006808B90120FE
:104AB00070BD8C480068A0F102008A490860084671
:104AC00000680078302804DB084600680078392840
:104AD00006DD844800684078A0F1300020700EE0C8
:104AE000804800684078A0F130007E490968097864
:104AF000A1F1300101EB810100EB410020700020A9
:104B0000D6E7FFE70120D3E73EB504464FF00000AB
:104B100002900190744801F0AFFC0546FFF715FFC5
:104B200001A802AB2A466E4900906F48FFF74DFF7F
:104B3000A0B90F22DDE90110FFF767FE6B4908609D
:104B40000846006808B901203EBD2CB10F22674815
:104B50000168204601F03EFC0020F5E70120F3E764
:104B60003EB504464FF0000002900190604801F00D
:104B700083FC0546FFF7E9FE01A802AB2A46584927
:104B800000905B48FFF721FFA0B90F22DDE901107B
:104B9000FFF73BFE574908600846006808B9012046
:104BA0003EBD2CB10F2253480168204601F012FC93
:104BB0000020F5E70120F3E7F0B585B006464FF099
:104BC0000000049003900546494801F055FC074653
:104BD000FFF7BBFE03A804AB3A46414900904448A6
:104BE000FFF7F3FE002867D10F22DDE90310FFF77E
:104BF0000CFE414908600846006810B9012005B064
:104C0000F0BD4FF0000406E03B480068005D02A9DB
:104C1000085504F10104032CF6D34FF000008DF881
:104C20000B00044608E03448006800F10300005D12
:104C300001A9085504F10104022CF4D34FF000003F
:104C40008DF8060002A801F035FC05464FF0FF0084
:104C5000B5FBF0F03070FF2D09D94FF0FF00B5FB28
:104C6000F0F100FB1150A0F10100707006E04FF070
:104C7000FF00B5FBF0F100FB1150707001A801F0CE
:104C800019FC05464FF0FF00B5FBF0F0B070FF2DAA
:104C900009D94FF0FF00B5FBF0F100FB1150A0F176
:104CA0000100F07006E04FF0FF00B5FBF0F100FBF3
:104CB0001151F1700020A2E720E00000000801403F
:104CC00000100140270F00204D4F42494C45000085
:104CD0000B730008554E49434F4D0000E772000822
:104CE000C8720008B8000020F9720008BC0000205B
:104CF0008B740008C0000020C400002001207EE763
:104D00002DE9FF4105464FF0000630460390029022
:104D10000446F94801F0B0FB0646FFF716FE02A86C
:104D200003AB3246F5A10090F348FFF74EFE002892
:104D300072D101222221DDE90230FFF739FD04465C
:104D40001CB9012004B0BDE8F081ECB160788DF8A9
:104D50000400A0788DF8050001A801F08DFB07463E
:104D6000394601A8FFF778FDA870E0788DF80400B7
:104D700020798DF8050001A801F07EFB0746394631
:104D800001A8FFF769FDE87003222221DDE9023066
:104D9000FFF70EFD04460CB90120D3E7ECB16078B3
:104DA0008DF80400A0788DF8050001A801F064FBDF
:104DB0000746394601A8FFF74FFD2871E0788DF8C6
:104DC000040020798DF8050001A801F055FB074685
:104DD000394601A8FFF740FD687102222C21DDE968
:104DE0000230FFF7E5FC04460CB90120AAE714B134
:104DF00014F8010C687001222C21DDE90230FFF764
:104E0000D7FC04460CB901209CE714B114F8010C3E
:104E10002870002096E7FFE7012093E7FEB50446DF
:104E20004FF0000002900190B64801F025FB0646C5
:104E3000FFF78BFD01A802AB3246B3490090B148A1
:104E4000FFF7C3FD30BB01222C210298FFF766FC5F
:104E5000AE4908600846006808B90120FEBDAB48AD
:104E6000006810F8010CA0F130002070A74800681D
:104E700000F10100A54908600846006801F01AFB2E
:104E800000EB400505EBD570C0F34F0060804FF09C
:104E90000000E3E70120E1E7FEB506464FF000041D
:104EA0002046029001909A4801F0E6FA0546FFF785
:104EB0004CFD01A802AB2A46934900909448FFF7A5
:104EC00084FD08B90020FEBD0120FCE72DE9F84370
:104ED0000546884617464FF000000090FFF735FD65
:104EE0008C488D4908600846006810B90120BDE86B
:104EF000F8833A4689498848006801F0F9FF8648F6
:104F0000006801F0B9FA00907F498348009A006870
:104F1000FFF722FD012F44D14146814801F0C1FA3B
:104F2000FFF713FD7B487C4908600846006808B914
:104F30000120DCE72A467B497748006801F0D8FF6A
:104F40007548006801F098FA009077A17248009ABD
:104F50000068FFF701FD3220FBF7F7FF73A17048EF
:104F600001F05DFA6E4801F087FA0090FFF7EDFC62
:104F70006A466B490120FEF728FEC820FBF7E5FFD3
:104F80004FF4806000906A4669494FF00100FEF7D7
:104F90001CFE68A1664801F050FA00287ED000206F
:104FA000A5E7002F7AD13E46344600BF04F1010048
:104FB0002A5C304606F10101CEB25F490A542A5DEF
:104FC000304606F10101CEB25B490A5404F10200F9
:104FD000C4B204F10100285C0D2802D0601C285CDA
:104FE00078B94FF04602304606F10101CEB252497F
:104FF0000A542A5D304606F10101CEB24E490A54E8
:1050000001E00B2CD2DB00BF4CA1454801F049FA6E
:105010004949434801F003FA4CA1414801F0FFF926
:10502000404601F029FA4FEA50000090009800F045
:105030000F034FEA101247A1484801F059FF4749B2
:10504000374801F0ECF94146354801F0E8F9FFF73F
:105050007CFC3048304908600846006808B90120E7
:1050600045E72F4801F008FA4FF00101C1EB50006D
:1050700000903B492848009A006801F039FF264813
:10508000006801F0F9F9009027A12348009A006810
:10509000FFF762FC3220FBF758FF00E021E023A17C
:1050A0001F4801F0BCF91E4801F0E6F90090FFF737
:1050B0004CFC6A461A490120FEF787FDC820FBF721
:1050C00044FF4FF4806000906A4619494FF0010098
:1050D000FEF77BFD17A1164801F0AFF908B10020DB
:1050E00005E7012003E770B54FF000041D4801F00B
:1050F000C3F9054640E00000F874000843524547F4
:105100000000000081740008C8720008C800002078
:10511000B774000827130020CC0000205374000847
:10512000980E00205F7400083E0000001A00000086
:10513000270F00204F4B0000180F00203030313176
:1051400030303044393136380000000030303038EB
:10515000413000002558255800000000D0000020F4
:105160006D740008017300081420FBF7EEFE04F1D3
:105170000104032C00D906E02A46F849F848FFF755
:10518000EBFB0028F0D100BF4FF000044FF001000E
:10519000F449087008E0FFF75FFCF249087004F179
:1051A0000104052C00D903E0EE4800780128F2D074
:1051B00000BF70BDFEB54FF0000630460290019072
:1051C0000546E94801F058F906461BE001A802AB84
:1051D0003246AFF2D8010090E348FFF7F6FB58B92A
:1051E00001222C21DDE90130FFF7E2FA04461CB16F
:1051F0006078312800D107E005F101054FF0140077
:10520000FBF7A3FE0B2DE1D300BFFEBD70B54FF041
:1052100000042546D548D64908604FF00202D5491A
:10522000D348006801F064FED148006801F024F919
:10523000044602E0052D00D907E02246CE49CC48BD
:105240000068FFF789FB0028F4D100BF70BD70B57E
:105250000446CA4801F010F90546FFF776FB2A46D6
:10526000C549C648FFF778FBC0B901223A21C448B6
:10527000FFF754FAC34908600846006808B90120DE
:1052800070BDC048006800F10100BE4908600846D2
:10529000006801F00FF920700020F1E70120EFE72E
:1052A000F8B504464FF000052846009006466846CB
:1052B000FFF7CDFF9DF80000A0421AD0AB48B249DD
:1052C00008602246B149B048006801F011FEAE48BE
:1052D000006801F0D1F8054602E0052E00D907E08C
:1052E0002A46A549A8480068FFF736FB0028F4D1F4
:1052F00000BFF8BD3EB54FF000000290019005469A
:1053000021E000BF01A802AB0B22A1A10090A2489E
:10531000FFF75BFB0028F5D101223A21DDE90130DE
:10532000FFF746FA04464CB100BF04F101042078AF
:105330002028FAD02078312800D105E005F10105B8
:10534000052D00D900E0DCE700BF3EBD3EB54FF0C3
:1053500000052846029001900446904801F08CF820
:105360000546FFF7F2FA01A802AB2A4682490090EF
:105370008A48FFF72AFB30B989A1DDE90120FFF750
:10538000EEF900B13EBD79488749086087A2894996
:105390008548006801F0ACFD8348006801F06CF8B6
:1053A000054604E004F10104052C00D907E02A4673
:1053B00071497D480068FFF7CFFA0028F2D100BF9D
:1053C00000BFDFE770B54FF000052C467A4801F0CA
:1053D00053F8054604E004F10104052C00D906E069
:1053E0002A4600217448FFF7B7FA0028F3D100BF1E
:1053F00070BD70B54FF000052C46704801F03CF8C8
:10540000054604E004F10104052C00D906E02A4613
:1054100059496A48FFF7A0FA0028F3D100BF70BDD0
:1054200030B591B004464FF03302214604A800F095
:10543000D1FF4FF000052846039002904B48604989
:1054400008600846006810B9012011B030BD0CA8F2
:1054500004AB421D5B4900905948006801F048FDCB
:105460005748006801F008F8054602A803AB2A4631
:105470005549009052480068FFF7A7FA78B9524999
:10548000DDE90220FFF76BF908B10020DDE74FA14D
:10549000DDE90220FFF763F908B10020D5E701201C
:1054A000D3E710B58EB04FF000044CA24CA10DF123
:1054B000290001F01DFD4BA249A101A801F018FD32
:1054C0004EA247A109A801F013FD04E004F1010474
:1054D000052C00D904E001A8FFF7A2FF0028F5D1B0
:1054E00000BF0EB010BD70B54FF000042546454812
:1054F00000F0C2FFC6B2FFF728FA10E01E20FBF74B
:1055000024FD04F10100C4B205F10105022C03DD04
:10551000FFF7F7F94FF000040C2D00D906E03246F2
:1055200015493848FFF718FA0028E7D100BF364878
:1055300000F0A2FFC6B232460F493348FFF70CFA1B
:1055400070BD70B504464FF0000508482F4908604B
:105550000846006808B9012070BD59E0CB72000808
:10556000017300081C010020F874000827130020B4
:10557000D400002002750008C8720008B17300084A
:10558000270F0020D8000020DC000020A2730008B4
:105590004347415454000000247500080E7500086C
:1055A000434D4E4554000000E000002022434D4E84
:1055B00045542200187500082F7500088A730008EA
:1055C00008010020CC730008D1720008414C5245FC
:1055D00041445920434F4E4E4543540054435000DC
:1055E000257300006C6B662E62726F61646E657469
:1055F000776F726B2E6E6574000000003838383893
:1056000000000000C4720008E1720008E4000020FD
:105610002246FE49FE48006801F06AFCFC4800682A
:1056200000F02AFF05462A46FA49F9480068FFF7C4
:1056300093F908B9002070BD0120FCE72DE9F04185
:1056400004460D464FF000070CB1FA2C02DD012094
:10565000BDE8F081F048F14908600846006808B9E3
:105660000120F5E72246EE49EC48006801F040FCD5
:10567000EA48006800F000FF0746FFF766F93A467F
:10568000E8A1E6480068FFF767F9002852D1012237
:105690002221E648FFF742F8E5490860022222216C
:1056A000E248FFF73BF8E3490860E148006810B1C1
:1056B0000846006808B90120CAE7DE480068DC49EE
:1056C0000968A0EB0100461E01D4304600E070429C
:1056D0000246D7480168491C284600F07BFE032299
:1056E0002221D248FFF71AF8D1490860042222216A
:1056F000CE48FFF713F8CF490860CD48006810B1D5
:105700000846006808B90120A2E7CA480068C849ED
:105710000968A0EB0100461E01D4304600E070424B
:105720000246C3480168491C05F10C0000F052FE16
:1057300000208DE701208BE770B50446FA2C00DCD1
:105740000CB9012070BDB448BB4908600846006828
:1057500008B90120F6E72246B849B748006801F0C9
:10576000C7FBB548006800F087FE05462A46A949F0
:10577000B1480068FFF7F0F808B90020E2E701201F
:10578000E0E770B54FF03004AD4800F075FE054617
:10579000FFF7DBF82A469F49A948FFF7DDF898B9DB
:1057A00002222C21A148FEF7B9FFA649086008464D
:1057B000006808B9012070BDA248006820B1A14866
:1057C000006844782046F6E70120F4E710B59E48CB
:1057D00000F052FE044622468E499B48FFF7BCF873
:1057E00008B9002010BD0120FCE710B5974800F073
:1057F00043FE0446224687499448FFF7ADF808B9AE
:10580000002010BD0120FCE770B50446904800F070
:1058100033FE0546FFF799F82A467E498C48FFF784
:105820009BF8002874D101222C218048FEF776FFD6
:10583000884908600846006808B9012070BD85489D
:105840000068A0F1080083490860084600684078B5
:10585000A0F1300009680978A1F1300101EB810164
:1058600000EB410040B260717A4800680079A0F115
:10587000300078490968C978A1F1300101EB810154
:1058800000EB410040B2207172480068C079A0F17D
:105890003000704909688979A1F1300101EB81017B
:1058A00000EB410040B2E0706A480068807AA0F1E5
:1058B000300068490968497AA1F1300101EB8101A2
:1058C00000EB410040B2A07062480068407BA0F14C
:1058D000300060490968097BA1F1300101EB8101C9
:1058E00000EB410040B260705A480068007CA0F1B3
:1058F000300058490968C97BA1F1300101EB8101F1
:1059000000EB410040B220704FF0000096E7FFE747
:10591000012093E72DE9F34F93B04FF00000129070
:10592000FFF713F83C484C4908600846006818B96E
:10593000012015B0BDE8F08F9DF953000A2190FBBE
:10594000F1F201FB120490FBF1F59DF94C0090FB84
:10595000F1F201FB120690FBF1F79DF94D0090FB6F
:10596000F1F201FB120890FBF1F99DF94E0090FB5A
:10597000F1F201FB120A90FBF1FB9DF94F0090FB45
:10598000F1F201FB120011909DF94F0090FBF1F034
:1059900010909DF9500090FBF1F201FB12000F9066
:1059A0009DF9500090FBF1F00E909DF9510090FB95
:1059B000F1F201FB12000D909DF9510090FBF1F006
:1059C000CDE904BACDE90698CDE90876CDE90A54C7
:1059D0000C90DDE90E23DDE91010CDE90023CDE9BF
:1059E00002101E491C48DDE90C23006801F080FA12
:1059F0001948006800F040FD129006491648129AB6
:105A00000068FEF7A9FF58BB002092E71573000855
:105A1000E4000020C872000827130020E8000020DE
:105A20002B7300082B43504252000000270F002028
:105A3000EC000020F0000020F40000203773000884
:105A400040730008F8000020497300084E730008F6
:105A50001B740008FC0000200001002025740008D1
:105A6000FFE7012065E770B505464FF00004FEF73B
:105A70006CFFFE48FE4908600846006808B901202E
:105A800070BDFA48FA4908600222FA49F8480068ED
:105A900001F02EFAF648006800F0EEFC04462246BB
:105AA000F549F3480068FEF757FF08B90020E7E71B
:105AB0000120E5E713B584B004464FF000000090E4
:105AC00002A8FFF71DF900B100BF01A8FFF7A6F972
:105AD00000B100BF6846FEF7D2FF00B100BF9DF8DD
