:020000040800F2
:1000000030230020CD3D0008191100081B11000805
:100010001F1100082311000827110008000000002C
:100020000000000000000000000000002B1100088C
:100030002D110008000000002F11000853110008C6
:10004000E73D0008E73D0008E73D0008EF11000824
:10005000E73D0008E73D0008E73D0008E73D0008F0
:10006000E73D0008E73D0008E73D0008E73D0008E0
:10007000E73D0008E73D0008E73D0008E73D0008D0
:10008000E73D0008E73D0008E73D0008E73D0008C0
:10009000E73D0008E73D0008E73D0008E73D0008B0
:1000A000E73D0008E73D0008E73D0008E73D0008A0
:1000B0002D120008E73D0008E73D0008E73D000875
:1000C000E73D0008E73D0008E73D0008E73D000880
:1000D000E73D00088F110008B1110008D311000896
:1000E00043120008FD110008E73D0008E73D000845
:1000F000E73D0008E73D0008E73D0008E73D000850
:10010000E73D0008E73D0008E73D0008E73D00083F
:10011000E73D0008E73D0008E73D0008E73D00082F
:10012000E73D0008E73D0008E73D0008E73D00081F
:10013000DFF80CD007F068F9004800478F08000886
:100140003023002010B5F9A007F012FC4FF0000496
:1001500006E0F848015DF8A007F00AFC04F101048C
:100160000F2CF6D3F5A007F003FCF5A007F000FC78
:100170004FF0000406E0F548015DF5A007F0F8FB3C
:1001800004F10104112CF6D3ECA007F0F1FB10BD33
:1001900010B5F1A007F0ECFB4FF0000406E0F148C9
:1001A000015DEBA007F0E4FB04F10104802CF6D321
:1001B000E2A007F0DDFB10BD10B54FF00100EA49E9
:1001C00008804FF00000E94908804FF05500E849E9
:1001D0000870E8490870E848E84908604FF00000F6
:1001E000E7490860E74908604FF00F020146D1482F
:1001F00006F042FE4FF0000405E04FF00000D34946
:10020000085504F10104112CF7D34FF0000405E068
:100210004FF00000D349085504F10104802CF7D3B6
:100220000F220021D84806F027FE4FF0000405E019
:100230004FF03000D549085504F101040F2CF7D3D5
:1002400018220021D24806F017FE2A220021D148A8
:1002500006F012FE0D220021CF4806F00DFE1422FA
:100260000021CE4806F008FE06220021CC4806F008
:1002700003FE10BD70B54FF0000500BF2C4607E02F
:10028000C448005DB749485505F1010504F1010472
:10029000022CF5D3BF488078B249485505F10105D5
:1002A0004FF0000408E0BB48C01C005DAD49485554
:1002B00005F1010504F10104022CF4D34FF0000410
:1002C00008E0B448401D005DA649485505F1010508
:1002D00004F10104022CF4D34FF0000408E0AD480F
:1002E000C01D005D9F49485505F1010504F1010459
:1002F000042CF4D34FF0000408E0A6480B30005D56
:100300009849485505F1010504F10104042CF4D382
:100310004FF0000408E09F480F30005D91494855B8
:1003200005F1010504F10104042CF4D39948C07CC3
:100330008C49485505F101054FF0000408E0954847
:100340001430005D8749485505F1010504F10104A9
:10035000022CF4D34FF0000408E08E481630005D04
:100360008049485505F1010504F10104092CF4D335
:100370008848C07F7B49485505F101054FF00004CE
:1003800008E084482030005D7649485505F10105B4
:1003900004F10104022CF4D34FF0000408E07D487E
:1003A0002230005D6F49485505F1010504F1010453
:1003B000022CF4D34FF0000408E076482430005DAE
:1003C0006849485505F1010504F10104022CF4D3F4
:1003D0004FF0000408E06F482630005D6149485541
:1003E00005F1010504F10104022CF4D34FF00004DF
:1003F00008E068482830005D5A49485505F1010574
:1004000004F10104022CF4D32A2D02D065A007F0D8
:10041000AFFA70BD70B54FF0000400BF254607E08D
:100420005C48405D4F49085504F1010405F10105A0
:10043000022DF5D34FF004004A49085504F1010498
:100440004FF00000085504F101044FF01C0008555E
:1004500004F101044FF0000508E04E48401D405DE6
:100460004049085504F1010405F10105022DF4D3BA
:100470004FF0000508E04748C01D405D3949085568
:1004800004F1010405F10105042DF4D34FF000053A
:1004900008E040480B30405D3249085504F1010442
:1004A00005F10105042DF4D34FF0000508E03948AB
:1004B0000F30405D2B49085504F1010405F1010599
:1004C000042DF4D33348C07C2649085504F10104B7
:1004D0004FF0000508E02F481430405D21490855D1
:1004E00004F1010405F10105022DF4D34FF00005DC
:1004F00008E028481630405D1A49085504F1010407
:1005000005F10105092DF4D32248C07F154908558E
:1005100004F101044FF07100085504F10104212C8D
:1005200002D025A007F024FA70BD0000494D4549CE
:100530003A0000002801002025632D000D0A00006C
:100540004C4F47494E204D53473A00006D01002063
:10055000307825782D000000475053204D53473AFE
:1005600000000000A80100200E0000201000002064
:100570001200002013000020805101001400002010
:10058000180000201C000020370100204601002038
:10059000550100207E0100202802002038020020A2
:1005A000040000205061636B4770734D73672045F2
:1005B00052524F52210A00005061636B416C6172CC
:1005C0006D4D7367204552524F52210A00000000C2
:1005D00001464FF07002FA4B1A705A704FF0020247
:1005E0009A704FF00002DA704FF02503F44A13714D
:1005F0004FEA1122F24B5A711A4691714FF00000E6
:1006000009E0C0F10302EF4B9B5CED4A02F10702E7
:10061000135400F101000428F3D34FF000000BE065
:10062000C0F10303E74A02F10402D35CE44A02F199
:100630000B02135400F101000428F1D34FF0000025
:100640000BE0C0F10303DF4A02F10802D35CDC4A8D
:1006500002F10F02135400F101000428F1D3D94A2A
:10066000127BD74BDA744FF000000BE0C0F10103AE
:10067000D44A02F10E02D35CD14A02F1140213549F
:1006800000F101000228F1D34FF0000006E0CE4A4D
:10069000135CCB4A1632135400F101000928F6D33B
:1006A000C84A127CC64BDA774FF0000006E0C74A12
:1006B000135CC34A2032135400F101000228F6D320
:1006C0004FF0000007E0C04A0932135CBC4A2232F6
:1006D000135400F101000228F5D34FF0000007E0A9
:1006E000B94A0B32135CB64A2432135400F10100AC
:1006F0000228F5D34FF0000007E0B44A921C135CC7
:10070000AF4A2632135400F101000228F5D34FF00E
:10071000000007E0AD4A121D135CA94A28321354A9
:1007200000F101000228F5D3704770B54FF00004C6
:1007300000BF254607E0A648405DA649085504F1DC
:10074000010405F10105022DF5D3A1488078A149E6
:10075000085504F101044FF0000508E09C48C01C56
:10076000405D9C49085504F1010405F10105022D85
:10077000F4D34FF0000508E09548401D405D9549D1
:10078000085504F1010405F10105022DF4D34FF0E1
:10079000000508E08E48C01D405D8E49085504F1F3
:1007A000010405F10105082DF4D38948807D8949AC
:1007B000085504F101048648C07D085504F1010480
:1007C000112C02D084A007F0D3F870BD70B5044698
:1007D0000D4602EBD2764FEA660606F101069E420E
:1007E00001DB0F2A01D0552070BD207800F00F00EA
:1007F0002870104602EBD0764FEA66010FE004EB5A
:10080000410010F8010C4FF0F00606EA001014F851
:10081000116006F00F0630446854A1F1010100296F
:10082000EDD1AA20E0E770B505460C464FF0700008
:100830006749087048704FF0010088704FF0000061
:10084000C8704FF00C01624801714FEA14206049F2
:100850004871084684714FF008034FF00F0200F111
:1008600007012846FFF7B2FF552808D10F220021C3
:100870005748C01D06F000FB5DA007F079F84FF067
:100880000100534988754FF02000C87570BDA4B0B1
:100890004FF00004A1464FF00106A046A2462746AD
:1008A000204611901090054600F022FF03F07DFED7
:1008B00004F096FA00F01BFD01214FF0C05001F04A
:1008C00022FD00F093FD00F06CFD00F001FE00F051
:1008D000A4FE002003F08BF900F0A4FE012100200B
:1008E00003F09BF9002003F099FA00F0CFFE0122FB
:1008F00040F22551444802F00BFF012003F08EFA2C
:1009000000F0DCFE012240F22551404802F000FFD9
:1009100000F0F5FDFFF750FC4AE24FF4967000F04E
:10092000BAFC002003F0C5F918B139480068012865
:1009300044D103F033FE37A007F01AF8A8E0C8202E
:1009400000F0A9FC12A803F03EFE06466EB94FF077
:10095000AA0033490870334908704FF0000003F0D3
:1009600046F931A007F004F893E0032E0FD14FF0C1
:10097000AA002B4908704FF055002A4908704FF023
:10098000000003F02CF92DA006F0F2FF0CE04FF070
:10099000550023490870234908704FF0000003F008
:1009A0001EF92BA006F0E4FF09F1010000F0FF0999
:1009B000B9F1120F54DD4FF000096AE0B7E1000011
:1009C0007E010020380200202802002004000020C0
:1009D000550100206D0100205061636B4C6F676909
:1009E0006E4D7367204552524F52210A000000009D
:1009F000494D45492070726F6365737320455252AB
:100A00004F52210A0000000000380140004400401D
:100A100018000020475053506F7765724F6E0A00E0
:100A200012000020130000204750532052656376C7
:100A30002053756363657373210A00004750532088
:100A40005265637620496E76616C69640A00000025
:100A50004750532052656376204572726F720A00C8
:100A6000012001F03CFD00BF012001F02BFD00281A
:100A7000FAD001F0D1FC00F10A0B584601F0F1FC6C
:100A800001F00AFD0121084601F04BFA00F06BFC71
:100A900055E700BF04F09DF94FF00100FD490880C3
:100AA0004FF00000FC490880804605F079F804F01A
:100AB0006FFE04F09BFE04F039FF04F0C3FE00203B
:100AC00004F00AFF04F05EFF04F0AFFF04F096FFAD
:100AD00005F044F80AE0F14804F0F4FA012804D1E2
:100AE00004F10104052C01D901E000E0F3E700BFA7
:100AF0004FF00004E7480188E848FFF794FEFFF74D
:100B000014FEE448008800F10100E24908803BE05F
:100B100010AB11AA1121E24805F012FC01280BD1FB
:100B200004F10104052C00D92FE0002003F067F840
:100B3000DCA006F01DFF27E0E2A1DDE9102004F0B3
:100B400084F80546E5B1E8794FEA0060297A00EBC0
:100B50000140697A00EB0120A97A00EB01073946D0
:100B6000D9A006F005FF3C2F04D9DB48874201D20B
:100B7000DA480760D9480168D9A006F0F9FE02E01A
:100B8000DCA006F0F5FE00E0C2E700BF0AE0E148A5
:100B900004F0F0FA012804D104F10104052C01D974
:100BA00001E000E0F3E700BF4FF00004BDE0DA48E9
:100BB0000078AA283AD012A803F005FD064656B9D7
:100BC0004FF0AA00D5490870D3490870AFF2A810B9
:100BD00006F0CEFE1FE0032E0CD14FF0AA00CF4945
:100BE00008704FF05500CC490870AFF2B01006F015
:100BF000BFFE10E04FF05500C8490870C6490870A4
:100C00004FF046024FF0000112A806F035F9AFF29E
:100C1000C01006F0ADFEC248362216A90E906846F6
:100C200006F018F912A80FC803F0F7FDB9480068DC
:100C300001460F90BB4805F060FA96480088FFF720
:100C4000C7FC002003F035F801280CD1B648006835
:100C5000012808D1FFF7DEFB4FF0210A4FF0010019
:100C6000B249086007E0FFF705FB4FF02A0A4FF092
:100C70000000AE4908605146AD4805F0F9FA012878
:100C800015D1002002F0BBFF08F1010000F0FF08C1
:100C9000B8F1040F06DD4FF0000805F0C7FC05F0C1
:100CA000D4FC43E04146A3A006F062FE0AE07A4885
:100CB000008800F101007849088008460188A3A057
:100CC00006F056FEFFF764FA7348008800281DDD21
:100CD0009648026894480168A3A006F049FE92482D
:100CE0000068012808D191480068012804D14FF01C
:100CF00000008D49086003E04FF001008A49086058
:100D000089480168A4A006F033FE0FE0614800881E
:100D100000F101005F4908800846008810B94FF0D3
:100D200001000880642000F0B6FA40E700BF002010
:100D300002F05DFF05F098FC03F037FC04F050F87A
:100D4000012001F0CCFB00BF012001F0BBFB00281B
:100D5000FAD0002002F0ADFF01280ED172480068E1
:100D600001280AD101F058FB00F13C0B584601F074
:100D700078FB8FA006F0FCFD0DE001F04DFB57491C
:100D8000096800EB010B584601F06BFB5348016802
:100D90008CA006F0EDFD01F07FFB504801688FA0AC
:100DA00006F0E6FD0121084601F0BBF800F0DBFA91
:100DB000B3E570B54FF000052C4600BF00BF07E05B
:100DC0004FF072005A49085504F1010405F101057C
:100DD000022DF5D34FF077005549085504F1010471
:100DE0004FF00000085504F101044FF05100085580
:100DF00004F101044FF0000507E07F48405D4C49D5
:100E0000085504F1010405F10105022DF5D34FF059
:100E1000000508E07848801C405D4549085504F10C
:100E2000010405F10105042DF4D34FF0000508E09D
:100E30007148801D405D3E49085504F1010405F1EB
:100E40000105042DF4D34FF0000508E06A480A308C
:100E5000405D3749085504F1010405F10105042DF1
:100E6000F4D36548401FC07C3149085504F10104A2
:100E70004FF0000508E060480F30405D2C490855F0
:100E800004F1010405F10105022DF4D34FF0000532
:100E9000BCE000000E00002010000020280100200F
:100EA0006D010020475052535F53656E6444617476
:100EB00061204C4F47494E204D5347204661696C95
:100EC0000A00000070700000736C65657053656304
:100ED000203D2025640A000000A302001400002029
:100EE000675F736574536C656570536563203D205F
:100EF00025640A0053657276657220536574205329
:100F00006C6565702054696D6572204552524F5270
:100F10000A0000000A000020130000201200002038
:100F20003802002028020020180000201C000020A9
:100F3000A8010020475052535F53656E64446174AA
:100F400061204661696C2025640A000047505253B5
:100F50005F53656E644461746120537563636573A8
:100F6000732025640A00000073656E645F6F6B2058
:100F7000616C61726D666C6167203D2025643B2069
:100F8000675F616C61726D5061636B6574466C6123
:100F900067203D2025640A0073656E645F6F6B20D7
:100FA000616C61726D666C6167203D2025640A008A
:100FB000616C61726D6D6F646520736C6565700A3C
:100FC000000000006E6F726D616C6D6F6465207360
:100FD0006C6565702025640A00000000474F494E8B
:100FE0004720494E544F2053544F504D4F444520B5
:100FF0002564207365630A00830100203A48405D40
:101000003A49085504F1010405F10105092DF5D30C
:1010100035481638C07F3549085504F101044FF0B2
:101020000000085504F1010402F043FE2F49085561
:1010300004F101044FF0000508E02B480C30405D3E
:101040002A49085504F1010405F10105022DF4D3E4
:101050004FF0000508E024480E30405D2349085554
:1010600004F1010405F10105022DF4D34FF0000550
:1010700007E01F48405D1D49085504F1010405F1D2
:1010800001050F2DF5D34FF0000507E01948405D2D
:101090001649085504F1010405F101050F2DF5D39A
:1010A0004FF0000507E01448405D1049085504F171
:1010B000010405F101050F2DF5D3104800780B4907
:1010C000085504F101044FF00100085504F1010432
:1010D0004FF00000085504F10104562C02D008A07E
:1010E00006F046FC70BD000094010020A80100201D
:1010F00028010020370100204601002012000020B6
:101100005061636B466163746F72794D73672045FC
:1011100052524F52210A0000704700BFFEE700BF45
:10112000FEE700BFFEE700BFFEE77047704770476D
:101130004948006870476420704700B50146FFF7D2
:10114000F7FF024600BFFFF7F3FF801A8842FAD983
:1011500000BD10B54048006800F101003E4908603C
:101160004FF00001084603F04BF90021012003F085
:1011700047F900F098F810BD032800D37047374BAB
:1011800043F82010364B43F8202000BFF6E710B597
:1011900040F22551334802F0CCFB40B1314802F017
:1011A00031FBC4B221464FF0000003F09FF810BDA0
:1011B00010B540F225512C4802F0BBFB40B12A4843
:1011C00002F020FBC4B221464FF0010003F08EF87C
:1011D00010BD10B52148806830B1214881681F4892
:1011E00082680220904701E000BFFEE710BD10B505
:1011F000032001F091F901F04FF910BD10B5022064
:1012000001F077F988B14FF4003000F064FC012060
:1012100000F0B9FE10B1012000F0C2FE01F03CF96F
:10122000022001F079F901F037F910BD10B5012164
:10123000880702F05BF918B10121880702F06AF90A
:1012400010BD10B54FF4004000F032FC18B14FF45F
:10125000004000F040FC10BD200000204C020020A7
:1012600058020020003801400044004010B500281A
:101270000ADA4FEA01724FEA1264F64A00F00F03ED
:10128000A3F10403D45405E04FEA01724FEA12635C
:10129000F14A135410BDF149086000BFEF490968D5
:1012A0000029FBD17047ED48006828B1EB48006881
:1012B000A0F10100E9490860704710B54FF0000146
:1012C000E74A12684FF47A74B2FBF4F30CE04FF083
:1012D0000602B3FBF2F2A2F1010100BF0A00A1F184
:1012E0000101FBD1A0F101000028F0D110BD10B523
:1012F000DB4800684FF06401B0FBF1F4B4F1807F8B
:1013000002D34FF0010016E024F07F40A0F101006D
:101310004FF0E02148614FF00F014FF0FF30FFF731
:10132000A5FF4FF000004FF0E02188614FF007006B
:1013300008614FF0000008B100BFFEE70C214FF03C
:10134000FF30FFF793FF10BD10B54FF4803000F071
:1013500059FE00F09CFE0446012C03D14FF4A0601E
:1013600000F0EBFE10BD10B54FF4803000F04AFEE7
:1013700000F08DFEBB4908700846007801280FD1A7
:1013800000F0BDFE00BF392000F05FFE0028FAD05B
:10139000022000F0B7FE00BF00F0BFFE0828FBD11E
:1013A00010BD10B5012000F0A8FD00F0A1FA012049
:1013B00000F012FF00BF612000F047FE0028FAD0C5
:1013C0004FF4007000F00BFF012000F00FFF01F060
:1013D0006AF847F6FF7001F036F801F05DF8012178
:1013E000022000F0F7FF01F057F810BD1CB54FF4D4
:1013F000003000F070FB4FF4003000904FF0000020
:101400008DF804004FF008008DF805004FF0010042
:101410008DF80600684600F0DAFA1CBD0EB5012111
:10142000084600F070FF4FF0804001F08FF84FF653
:10143000FE70ADF804004FF6FF70ADF800004FF0FD
:101440000000ADF80600ADF8020069464FF080409C
:1014500001F050F90121880702F044F801221146F9
:10146000900701F020FD0121880701F000FD002117
:10147000012000F048FF0EBD0EB50121042000F050
:1014800042FF794801F062F848F6CE20ADF804003A
:101490004FF6FF70ADF800004FF00000ADF8060009
:1014A000ADF802006946704801F024F901216E4848
:1014B00002F018F8012211466B4801F0F4FC0121FA
:1014C000694801F0D4FC0021042000F01CFF0EBD8F
:1014D00008B54FF4A06000F08BF94FF029008DF8AB
:1014E00000004FF000008DF801008DF802004FF071
:1014F00001008DF80300684600F080F908BD08B5CA
:101500004FF025008DF800004FF007008DF8010026
:101510004FF000008DF802004FF001008DF803003D
:10152000684600F06BF94FF026008DF800004FF090
:1015300007008DF801004FF001008DF802008DF8D2
:101540000300684600F05AF908BD08B54FF4E060A2
:1015500000F04EF94FF01C008DF800004FF0000035
:101560008DF801004FF003008DF802004FF00100EC
:101570008DF80300684600F041F908BD08B54FF446
:10158000E06000F035F94FF01E008DF800004FF0DC
:1015900000008DF801004FF004008DF802004FF0BC
:1015A00001008DF80300684600F028F908BD10B569
:1015B0000121084600F0A7FE0121880701F057FC31
:1015C00010BD10B500214FF0804001F050FC00210B
:1015D000012000F098FE10BD10B50121042000F09C
:1015E00092FE0121204801F042FC10BD10B50021FF
:1015F0001D4801F03CFC0021042000F084FE10BDD9
:1016000010B545F2555000F04BFC062000F04BFCA5
:1016100040F21A6000F04AFC10BD10B5002002F044
:10162000C1FA10BD1FB54FF4165000904FF00000E6
:10163000ADF80400ADF80600ADF80800ADF80C00F8
:101640004FF00C00ADF80A0069464FF0020002F0BE
:101650003BFB1FBD18ED00E000E400E02800002087
:1016600040000020240000200008004070B504461F
:101670000D46E1B21D4802F0C1F800BF40211B48F1
:1016800002F032F90028F9D0204670BD1FB54FF4A2
:10169000165000904FF00000ADF80400ADF80600C1
:1016A000ADF80800ADF80C004FF00C00ADF80A00E2
:1016B00069464FF0000002F007FB1FBD1FB54FF455
:1016C000165000904FF00000ADF80400ADF8060091
:1016D000ADF80800ADF80C004FF00C00ADF80A00B2
:1016E00069464FF0010002F0EFFA1FBD00480040CC
:1016F00008B50121142000F0F7FD4FF00200ADF80D
:1017000000004FF010008DF803004FF003008DF83B
:1017100002006946324800F04DFA4FF42060ADF8FF
:1017200000004FF010008DF803004FF003008DF81B
:10173000020069462B4800F03DFA4FF00400ADF876
:1017400000004FF010008DF803004FF003008DF8FB
:1017500002006946244800F02DFA4FF02000ADF851
:1017600000004FF010008DF803004FF003008DF8DB
:10177000020069461D4800F01DFA4FF48060ADF884
:1017800000004FF028008DF803006946154800F06E
:1017900011FA08BD08B50121142000F0A5FD4FF095
:1017A0000200ADF800004FF004008DF803004FF088
:1017B00003008DF802006946094800F0FBF94FF478
:1017C0002060ADF800004FF004008DF803004FF0EA
:1017D00003008DF802006946024800F0EBF908BDED
:1017E000000801400010014000140140000C0140BD
:1017F000384940EA0101384A1160704770B54FF02E
:1018000000010B464FF00F02C4784CB3324C2468F1
:1018100004F4E064C4F5E0644FEA1421C1F1040368
:1018200022FA01F2447804FA03F1847804EA02040B
:1018300044EA01014FEA0111284C0678A1550478C9
:1018400004F01F054FF0010404FA05F405784FEA8F
:1018500065154FF0E02606EB8505C5F800410CE064
:10186000047804F01F054FF0010404FA05F41C4D40
:1018700006784FEA661645F8264070BD194A01EA17
:10188000020242EA0002184B1A60704731B1174A4F
:10189000126842EA0002154B1A6005E0134A12680A
:1018A00022EA0002114B1A607047042808D14FF059
:1018B000E021096941F004014FF0E022116107E0E5
:1018C0004FF0E021096921F004014FF0E02211619D
:1018D000704700000000FA050CED00E000E400E0B5
:1018E00080E100E080FFFF1F08ED00E010ED00E068
:1018F00010B5012000F034FD002000F031FD10BDD6
:1019000024490860704724490860704723490860EB
:10191000704701464FF00000214A10884FF67F4281
:1019200000EA020040EA01001D4A108070470146AB
:101930004FF000001A4A10884FF6807200EA020049
:1019400040EA0100164A108070474FF00002154A25
:1019500002441160704701464FF00002114A0A44E8
:10196000108870470D4818300068C0B270470E48A4
:10197000008840F001000C490880704707481C307F
:101980000068C0B270470848008840F0020006496D
:101990000880704704860D4200860D4288860D42FD
:1019A0002C6C0040006C0040346C00404FF0000094
:1019B0004A49086001F10401086001F1040108606E
:1019C00001F10401086046484649086070474FF03D
:1019D000000142498279002A40D00A461268036811
:1019E00022EA03020B461A6001F10402126803683E
:1019F00022EA030201F104031A60027911440A6821
:101A0000036842EA03020A60374A1268036822EA5E
:101A10000302354B1A6003F104021268036822EADC
:101A20000302324B1A604279102A0ED12E4A1268F4
:101A3000036842EA03022C4B1A602C4A12680368BE
:101A400042EA0302294B1A600FE02449427911440B
:101A50000A68036842EA03020A6006E00279114458
:101A60000A68036822EA03020A6070474FF0000127
:101A7000016001714FF00C0141714FF00001817163
:101A800070471B49096841EA0001194A1160704713
:101A900001464FF00000134A12680A4202D04FF08C
:101AA000010001E04FF0000070470E4908607047E8
:101AB00001464FF000000246084B1B6803EA010292
:101AC000084B1B680B4203D012B14FF0010001E03C
:101AD0004FF0000070470349086070470004014060
:101AE000FFFF0F0014040140080401400C040140F2
:101AF0001004014010B50446DE48844208D101219B
:101B0000042000F00FFC0021042000F00BFC46E054
:101B1000D948844208D10121082000F003FC0021AB
:101B2000082000F0FFFB3AE0D448844208D10121AC
:101B3000102000F0F7FB0021102000F0F3FB2EE056
:101B4000CF48844208D10121202000F0EBFB002186
:101B5000202000F0E7FB22E0CA48844208D101219E
:101B6000402000F0DFFB0021402000F0DBFB16E00E
:101B7000C548844208D10121802000F0D3FB002118
:101B8000802000F0CFFB0AE0C048844207D1012149
:101B9000801500F0C7FB0021A01500F0C3FB10BDAD
:101BA00010B50121084600F0BDFB0021012000F026
:101BB000B9FB10BD2DE9F04102464FF000052E465D
:101BC000284603460446074691F803C00CF00F056B
:101BD00091F803C01CF0100F03D091F802C04CEA3A
:101BE0000505B1F800C01CF0FF0F35D014684FF0A8
:101BF00000002EE04FF0010C0CFA00F3B1F800C029
:101C00000CEA03069E4222D14FEA80034FF00F0CEC
:101C10000CFA03F724EA070405FA03FC4CEA04046F
:101C200091F803C0BCF1280F06D14FF0010C0CFA5B
:101C300000FCC2F814C00AE091F803C0BCF1480FE0
:101C400005D14FF0010C0CFA00FCC2F810C000F1F5
:101C500001000828CED31460B1F800C0BCF1FF0F1A
:101C600038DD54684FF0000031E000F1080C4FF00F
:101C7000010808FA0CF3B1F800C00CEA03069E4212
:101C800023D14FEA80034FF00F0C0CFA03F724EA3C
:101C9000070405FA03FC4CEA040491F803C0BCF104
:101CA000280F05D100F1080C08FA0CF8C2F81480CE
:101CB00091F803C0BCF1480F07D100F1080C4FF0B8
:101CC000010808FA0CF8C2F8108000F10100082899
:101CD000CBD35460BDE8F0814FF6FF7101804FF027
:101CE000020181704FF00401C170704702464FF04D
:101CF000000093680B4202D04FF0010001E04FF06A
:101D0000000070470146886880B2704702464FF075
:101D10000000D3680B4202D04FF0010001E04FF009
:101D2000000070470146C86880B270470161704783
:101D3000416170470AB1016100E041617047C160D3
:101D400070474FF4803242EA010282618161826110
:101D500082698269704702464FF000004C4B186858
:101D60004FF6807300EA030040EA021040EA0100E7
:101D7000474B186070474749C8617047F0B50A463D
:101D80004FF000031C4619460D4600F00046B6F120
:101D9000004F02D13E4EF16901E03D4E7168C0F343
:101DA000034583B200F44016B6F5401F08D121F078
:101DB0007061374E766826F07066354F7E6017E0AA
:101DC00000F48016B6F5801F08D14FF0030606FA1E
:101DD00005F421EA040141F0706109E04FEA505630
:101DE0004FEA061603FA06F621EA060141F0706191
:101DF0003AB14FEA50564FEA061603FA06F646EA9B
:101E0000010100F00046B6F1004F02D1204EF16111
:101E100001E01F4E7160F0BD30B54FF000024FEA97
:101E200081734FEA13744FF00F0303FA04F21A4B55
:101E30004FEAA10453F8243023EA0203164C4FEA78
:101E4000A10544F8253023464FEAA10453F8243075
:101E50004FEA81744FEA147400FA04F443EA04036D
:101E60000D4C4FEAA10544F8253030BD0B49086000
:101E70007047000000080140000C014000100140C4
:101E80000014014000180140001C014000200140E6
:101E9000000001400000204208000140DC00204218
:101EA0000F49086070470E49486070470C498860C8
:101EB00070474AF6AA200A49086070474CF6CC40A1
:101EC00007490860704701464FF00000044AD26895
:101ED0000A4202D04FF0010001E04FF000007047CD
:101EE0000030004010B50121080700F02AFA002157
:101EF0004FF0805000F025FA10BD2D490862704760
:101F00002B490861704701464FF00000294A1068CC
:101F100020F0E00040EA01001060704726490860A8
:101F2000704710B502464FF00000224B186820F0B1
:101F3000030040EA02001860204B1B6843F00403D2
:101F40001E4C2360012901D130BF00E020BF1B4B94
:101F50001B6823F00403194C236010BD154800686A
:101F600040F00400134908600846006840F0020091
:101F700008601248006840F004001049086000BF83
:101F800000BF30BF704701464FF00000094A526859
:101F90000A4202D04FF0010001E04FF0000070470C
:101FA0000449096841EA8001024A11607047000053
:101FB00000000E4200700040A0000E4210ED00E054
:101FC000F748006840F00100F5490860084640689D
:101FD000F44900EA0100F249486008460068F24905
:101FE00000EA0100EE4908600846006820F48020FD
:101FF00008600846406820F4FE0048604FF41F0067
:1020000088607047E649096821F48031E44A11602C
:102010001146096821F480211160B0F5803F03D09A
:10202000B0F5802F0ED106E0DD49096841F480311A
:10203000DB4A116007E0DA49096841F4A021D84A77
:10204000116000E000BF00BF704710B501464FF0BF
:102050000002134610464FEA6112012A02D1D04C09
:10206000236806E0022A02D1CD4C236A01E0CC4C61
:10207000636A01F01F024FF0010404FA02F41C42EB
:1020800002D04FF0010001E04FF0000010BD70B52C
:102090004FF000042546264600BF3120FFF7D5FF4C
:1020A000064604F10104B4F5A06F01D0002EF4D06F
:1020B0003120FFF7CAFF10B14FF0010501E04FF0EA
:1020C0000005284670BD01464FF00000B44A106874
:1020D00020F0F80040EAC10010607047B349086082
:1020E000704702464FF00000AD4B586820F47C105A
:1020F00042EA010343EA0000A94B58607047AB492C
:102100000866704701464FF00000A54A506820F06D
:10211000030040EA010050607047A148406800F0A9
:102120000C00704701464FF000009D4A506820F0B7
:10213000F00040EA01005060704701464FF0000097
:10214000974A506820F4E06040EA01005060704710
:1021500001464FF00000924A506820F4605040EA77
:10216000C1005060704731B18D4A527A42EA000294
:102170008B4B5A7208E08A4A527A6FEA0003DBB24C
:1021800002EA0302864B5A72704789490860704719
:1021900001464FF00000824A506820F4404040EA77
:1021A0000100506070474FF00001824A11707C4A74
:1021B00082F82010012802D004280AD104E04FF050
:1021C00001017C4A117005E04FF00501794A117058
:1021D00000E000BF00BF7047774908607047704952
:1021E000096A41EA00016E4A11627047734908604A
:1021F000704730B54FF000010A460C460B46684D5B
:102200006D6805F00C0121B1042905D0082927D1FA
:1022100005E06B4D056026E0694D056023E0604DEB
:102220006D6805F470125E4D6D6805F480344FF0F2
:10223000020505EB924224B9624D02FB05F50560EB
:102240000DE0574D6D6815F4003F04D05D4D02FB65
:1022500005F5056003E05A4D02FB05F5056002E057
:10226000574D056000BF00BF4D4D6D6805F0F00192
:102270004FEA1111544D6B5C056825FA03F5456072
:10228000474D6D6805F4E0614FEA11214E4D6B5CDE
:10229000456825FA03F58560414D6D6805F4605188
:1022A0004FEAD121484D6B5C456825FA03F5C560BE
:1022B0003B4D6D6805F440414FEA9131434D6B5CF5
:1022C000C568B5FBF3F5056130BD31B1344A5269DB
:1022D00042EA0002324B5A6105E0314A526922EA71
:1022E00000022F4B5A61704731B12D4A926942EA80
:1022F00000022B4B9A6105E0294A926922EA00020A
:10230000274B9A61704731B1254AD26942EA0002EF
:10231000234BDA6105E0224AD26922EA0002204B0F
:10232000DA61704731B11E4AD26842EA00021C4BA2
:10233000DA6005E01A4AD26822EA0002184BDA6035
:10234000704731B1164A126942EA0002144B1A6111
:1023500005E0134A126922EA0002114B1A61704724
:102360001B49086070471149C86470470C49C8711F
:1023700070470B48406A40F08070094948627047D6
:1023800001464FF00000064A92680A4202D04FF020
:10239000010001E04FF0000070470149887270476A
:1023A000001002400000FFF8FFFFF6FE000042426E
:1023B000D800424220100240800442423C04424283
:1023C00000127A0000093D002C0000203C00002093
:1023D0004004424231B1554A128842EA0002534B4E
:1023E0001A8008E0514A12886FEA00039BB202EAA1
:1023F00003024E4B1A8070474D48008840F0100091
:102400004B49088070474A4800884FF6EF7100EA50
:1024100001004749088070474FF000014548018896
:10242000A0F10400008841EA0040704700B5024670
:10243000FFF7E2FF4FEA12403F4908803D490A801A
:10244000FFF7E1FF00BD00B50246FFF7D5FFC2F37D
:1024500003403A49088001F104010A80FFF7D3FFE5
:1024600000BD00B50246FFF7C7FF4FEA12403449EE
:10247000088001F104010A80FFF7C5FF00BD4FF09D
:102480000000304909884FEA01714FEA11302E49A6
:10249000098841EA0000704700BF2548008810F015
:1024A000200FFAD07047224800884FF6F77100EAF3
:1024B00001001F49088000BF1D48008810F0080F68
:1024C000FAD0704701464FF00000194A12880A42BC
:1024D00002D04FF0010001E04FF0000070471449B6
:1024E00009886FEA000292B201EA0201104A1180E3
:1024F000704701464FF000000D4A128802EA0102BF
:10250000D0B20A4A12880A4203D010B14FF001003B
:1025100001E04FF000007047054909886FEA0002AA
:1025200092B201EA0201024A11807047002800407D
:10253000042800401C2800401828004008280040BB
:1025400020280040102800401428004010B5044600
:10255000FE48844208D10121C014FFF7E3FE0021A8
:10256000E014FFF7DFFEC4E0B4F1804F08D1012191
:102570000846FFF7E6FE00210120FFF7E2FEB8E083
:10258000F348844208D101210220FFF7DAFE00213E
:102590000220FFF7D6FEACE0EE48844208D10121CC
:1025A0000420FFF7CEFE00210420FFF7CAFEA0E0C2
:1025B000E948844208D101210820FFF7C2FE00212A
:1025C0000820FFF7BEFE94E0E448844208D10121D0
:1025D0001020FFF7B6FE00211020FFF7B2FE88E0C2
:1025E000DF48844208D101212020FFF7AAFE002104
:1025F0002020FFF7A6FE7CE0DA48844208D10121C2
:102600004014FFF78FFE00216014FFF78BFE70E08F
:10261000D548844209D10121C804FFF783FE002177
:102620004FF40020FFF77EFE63E0D048844209D1DA
:1026300001210805FFF776FE00214FF48010FFF717
:1026400071FE56E0CA48844209D101214805FFF7CE
:1026500069FE00214FF40010FFF764FE49E0C54811
:10266000844208D101214020FFF76BFE0021402069
:10267000FFF767FE3DE0C048844208D10121802079
:10268000FFF75FFE00218020FFF75BFE31E0BB48D3
:10269000844208D101218015FFF753FE0021A015C7
:1026A000FFF74FFE25E0B648844209D10121080416
:1026B000FFF738FE00214FF48030FFF733FE18E0BB
:1026C000B048844209D101214804FFF72BFE0021C4
:1026D0004FF40030FFF726FE0BE0AB48844208D1F0
:1026E00001218804FFF71EFE00214FF48020FFF730
:1026F00019FE10BD4FF000020288944B98420ED094
:10270000984B98420BD0B0F1804F08D0904B984234
:1027100005D0904B984202D08F4B984206D14FF68D
:102720008F7302EA03024B8843EA02028B4B984202
:1027300009D08B4B984206D04FF6FF4302EA0302C2
:10274000CB8843EA020202808B8883850B8803854D
:102750007E4B98420BD0834B984208D0884B9842CE
:1027600005D0884B984202D0874B984201D10B7A12
:1027700003864FF001038382704770B54FF0000469
:1027800022461346058C4FF6FE7605EA06050584BB
:10279000028C8388048B4FF68F7504EA05044FF68C
:1027A000FC7504EA05040D8845EA04044FF6FD753E
:1027B00002EA05020D8945EA02024D8845EA020255
:1027C000624DA8420BD0674DA84208D06C4DA8427C
:1027D00005D06C4DA84202D06B4DA8421BD14FF6DC
:1027E000F77502EA05024D8945EA02024FF6FB75CC
:1027F00002EA05028D8845EA02024FF6FF6503EA08
:1028000005034FF6FF5503EA05038D8945EA0303E7
:10281000CD8945EA030383800483CD8885860284BD
:1028200070BD70B54FF0000422461346058C4FF67C
:10283000EF7605EA06050584028C8388048B48F64A
:10284000FF7504EA05044FF6FF4504EA05040D8808
:102850004FEA056544EA15444FF6DF7502EA0502C2
:102860000D894FEA055542EA15424D884FEA055554
:1028700042EA1542354DA84202D03A4DA84223D132
:102880004FF67F7502EA05024D894FEA055542EA87
:1028900015424FF6BF7502EA05028D884FEA0555CD
:1028A00042EA15424FF6FF3503EA05034FF2FF7582
:1028B00003EA05038D894FEA854543EA1543CD892F
:1028C0004FEA854543EA154383800483CD88058715
:1028D000028470BD70B54FF0000422461346058C8B
:1028E0004FF6FF6605EA06050584028C8388848B13
:1028F0004FF68F7504EA05044FF6FC7504EA0504EB
:102900000D8845EA04044FF6FF5502EA05020D89D9
:102910004FEA056542EA15424D884FEA056542EAED
:1029200015420A4DA84202D00E4DA84244D14FF2A2
:10293000FF7502EA05024D894FEA056542EA154234
:102940004FF6FF3502EA05028D881FE0002C01409A
:102950000004004000080040000C0040001000404F
:102960000014004000340140004C01400050014080
:102970000054014000180040001C004000200040AE
:102980000040014000440140004801404FEA056515
:1029900042EA15424EF6FF7503EA05034DF6FF7550
:1029A00003EA05038D894FEA055543EA1543CD89AE
:1029B0004FEA055543EA154383808483CD88858794
:1029C000028470BD70B54FF0000213461446058CAA
:1029D0004EF6FF7605EA06050584038C8488828B13
:1029E00048F6FF7502EA05024FF6FF4502EA0502C6
:1029F0000D884FEA056542EA15424DF6FF7503EA78
:102A000005030D894FEA057543EA15434D884FEAE2
:102A1000057543EA1543FB4DA84202D0FA4DA84282
:102A200008D14BF6FF7504EA05048D894FEA8555F8
:102A300044EA154484808283CD88A0F84050038402
:102A400070BD828B4FF2FF3302EA03028283828BD6
:102A50004FEA016342EA134282837047F0B50C46A5
:102A600015464FF0000211460E46078C4EF6FF7CCD
:102A700007EA0C070784828B018C4FEA04774FEA40
:102A8000174640F6FF4702EA07024FEA056742EAA7
:102A900017424FEA037742EA1742DA4FB8420ED0A4
:102AA000D94FB8420BD0B0F1804F08D0D74FB842C1
:102AB00005D0D74FB84202D0D64FB84208D14DF614
:102AC000FF7701EA070146F4805747EA010107E072
:102AD00047F6FF5701EA070144F4805747EA01012E
:102AE00082830184F0BD828B4FF6F37302EA030206
:102AF0008283828B42EA010282837047F0B50C46E2
:102B000015464FF0000211460E46078C4FF6FF6C3B
:102B100007EA0C070784828B018C4FEA04674FEAAF
:102B200017464FF60C7702EA07024FEA035745EAC9
:102B3000174747EA0202B34FB8420ED0B24FB8422D
:102B40000BD0B0F1804F08D0B04FB84205D0B04F95
:102B5000B84202D0AF4FB84208D14FF6FF5701EA52
:102B6000070146F4807747EA010107E04FF2FF577B
:102B700001EA070144F4807747EA01018283018476
:102B8000F0BD028B4FF2FF3302EA03020283028B95
:102B90004FEA016342EA134202837047F0B50C46E4
:102BA00015464FF0000211460E46078C4FF6EF7C9B
:102BB00007EA0C070784028B018C4FEA04574FEA9F
:102BC000174640F6FF4702EA07024FEA037742EA58
:102BD00017424FEA056742EA17428A4FB8420ED0C1
:102BE000894FB8420BD0B0F1804F08D0874FB84220
:102BF00005D0874FB84202D0864FB84208D14FF671
:102C0000DF7701EA070146F0100747EA010107E014
:102C10004FF65F7701EA070144F0100747EA010128
:102C200002830184F0BD028B4FF6F37302EA0302C4
:102C30000283028B42EA010202837047F0B50C4620
:102C400015464FF000021146068C4FF6FE7706EA55
:102C500007060684028B018C4FF60C7602EA060208
:102C60004FEA035645EA164646EA0202654EB0426E
:102C70000ED0654EB0420BD0B0F1804F08D0634EFD
:102C8000B04205D0624EB04202D0624EB04208D18E
:102C90004FF6FD7601EA060144F0010646EA01011D
:102CA00007E04FF6F57601EA060144F0010646EA30
:102CB000010102830184F0BD70B505460C46514800
:102CC00085420ED0504885420BD0B5F1804F08D0D8
:102CD0004E48854205D04E48854202D04D48854237
:102CE00000D100E000BF208850B92389A288618804
:102CF0002846FFF7A3FFE1882846FFF794FF25E069
:102D0000208804280AD12389A28861882846FFF7F1
:102D100045FFE1882846FFF734FF17E020880828A0
:102D20000AD12389A28861882846FFF7E7FEE18857
:102D30002846FFF7D8FE09E02389A2886188284643
:102D4000FFF78CFEE1882846FFF77BFE70BD2DE97A
:102D5000F04105460C464FF000064FF00107608831
:102D600010B94FF0020601E04FF00006A0880128DC
:102D700002D14FF0020701E04FF001072088A0B90F
:102D80002389A28861882846FFF758FFE1882846F2
:102D9000FFF749FF23893A4631462846FFF7FEFEF2
:102DA000E1882846FFF7EDFE13E02389A2886188B9
:102DB0002846FFF7F3FEE1882846FFF7E2FE238965
:102DC0003A4631462846FFF739FFE1882846FFF7A3
:102DD0002AFFBDE8F0810A884B8842EA03028B880B
:102DE00042EA0302CB8842EA03020B8942EA030269
:102DF0004B8942EA03028B8942EA0302A0F844208D
:102E000070470000002C01400034014000040040E5
:102E100000080040000C00404FF6FF7181804FF029
:102E200000010180C1804180017270474FF00001B4
:102E3000018041808180C180018141818181C18186
:102E400070474FF00001018041804FF00101818007
:102E50004FF00001C180018170474FF000010180F7
:102E600041808180C180018141818181704721B190
:102E7000028842F00102028005E002884FF6FE73EC
:102E800002EA03020280704731B1B0F8442042F4F4
:102E90000042A0F8442005E0B0F84420C2F30E023E
:102EA000A0F84420704710B522B1838943EA01039A
:102EB000838106E083896FEA0104A4B203EA040374
:102EC000838110BD8182704741EA0203A0F8483037
:102ED000704710B522B1838943EA0103838106E07C
:102EE00083896FEA0104A4B203EA0403838110BD5D
:102EF00001894FF6F87201EA0201018170470A4622
:102F00004FF0000101894FF68F7301EA030141EA96
:102F100002010181704730B504460D46294620461E
:102F2000FFF7EDFF208940F00700208130BD2DE93B
:102F3000F04104460D4616461F46602D06D13B461D
:102F4000012231462046FFF729FE05E03B460122DB
:102F500031462046FFF772FE29462046FFF7CFFF95
:102F6000208940F007002081BDE8F08130B50C4693
:102F70004FF000010189C9B24FEA036542EA1545E5
:102F800045EA040545EA0101018130BD2DE9F04122
:102F900005460E46174698464FF0000443463A460B
:102FA00031462846FFF7E2FF2C894FF6F87004EA15
:102FB000000444F007044FF68F7004EA000444F064
:102FC00070042C81BDE8F081F0B504460D4616462C
:102FD0001F463B46324629462046FFF7C7FF208959
:102FE00040F480402081F0BD0185828270470A460E
:102FF0004FF0000101884FF68F7301EA030141EAA7
:10300000020101807047F0B50C4615461E464FF090
:1030100000010A460B460189028B038C4FF6F877B4
:1030200001EA070141EA04014FF6FC4702EA070200
:1030300040F2011742EA07024FF6DD7703EA070381
:103040004FEA065745EA174747EA0303018102831F
:103050000384F0BD0A464FF00001018B4FF68F73D9
:1030600001EA030141EA0201018370470A464FF079
:103070000001018B48F6FF7301EA03014FEA026386
:1030800041EA1341018370470A464FF00001818BEA
:103090004FF68F7301EA030141EA02018183704711
:1030A0000A464FF00001818B48F6FF7301EA0301E5
:1030B0004FEA026341EA13418183704721B10288DC
:1030C00042F08002028005E002884FF67F7302EA38
:1030D00003020280704721B1828842F0040282809C
:1030E00005E082884FF6FB7302EA03028280704794
:1030F00021B1828842F00802828005E082884FF682
:10310000F77302EA03028280704721B1828842F09D
:103110000102828005E082884FF6FE7302EA030214
:10312000828070470A464FF00001018B4FF6F7731B
:1031300001EA030141EA0201018370470A464FF0A8
:103140000001018B4FF2FF7301EA03014FEA0263B2
:1031500041EA1341018370470A464FF00001818B19
:103160004FF6F77301EA030141EA020181837047D8
:103170000A464FF00001818B4FF2FF7301EA030111
:103180004FEA026341EA1341818370470A464FF0D8
:103190000001018B4FF6FB7301EA030141EA0201D2
:1031A000018370470A464FF00001018B4FF6FF3351
:1031B00001EA03014FEA026341EA134101837047C8
:1031C0000A464FF00001818B4FF6FB7301EA0301C1
:1031D00041EA0201818370470A464FF00001818B6A
:1031E0004FF6FF3301EA03014FEA026341EA13415C
:1031F000818370470A464FF00001018B4FF67F73C1
:1032000001EA030141EA0201018370470A464FF0D7
:103210000001018BC1F30E014FEA026341EA134141
:10322000018370470A464FF00001818B4FF67F7390
:1032300001EA030141EA0201818370470A464FF027
:103240000001818BC1F30E014FEA026341EA134191
:10325000818370470A464FF00001018C4FF6FD73E1
:1032600001EA030141EA0201018470470A464FF076
:103270000001018C4FF6F77301EA030141EA0201F4
:10328000018470470A464FF00001018C4FF6DF734E
:1032900001EA03014FEA025341EA134101847047F6
:1032A0000A464FF00001018C4FF67F7301EA0301DB
:1032B0004FEA025341EA1341018470470A464FF036
:1032C0000001018C4FF6FF5301EA03014FEA02634C
:1032D00041EA1341018470470A464FF00001018C16
:1032E0004FF2FF7301EA03014FEA026341EA13411F
:1032F000018470470A464FF00001018C4DF6FF73C0
:1033000001EA03014FEA027341EA13410184704765
:1033100030B54FF000034FF0010404FA01F4A3B2FA
:10332000048C6FEA0305ADB204EA05040484048C3E
:1033300002FA01F5ADB244EA0504048430BD30B5AB
:103340004FF000034FF0040404FA01F4A3B2048C1C
:103350006FEA0305ADB204EA05040484048C02FAA2
:1033600001F5ADB244EA0504048430BD70B50346EE
:103370004FF000000446184600F118004FF0010518
:1033800005FA01F5ACB21D8C6FEA0406B6B205EA87
:1033900006051D8409B108290AD100EB6100056802
:1033A00025F070050560056845EA020505600EE038
:1033B000A1F10405ADB200EB6500056825F4E04518
:1033C000056005684FEA026645EA1645056070BD6E
:1033D00021B1028842F00202028005E002884FF625
:1033E000FD7302EA03020280704721B1028842F0B5
:1033F0000402028005E002884FF6FB7302EA030232
:103400000280704721B1828842F08002828005E00C
:1034100082884FF67F7302EA030282807047028837
:103420004FF6F77302EA03020280028842EA0102C1
:103430000280704782884FF68F7302EA030282800F
:10344000828842EA01028280704702894FF6F8734F
:1034500002EA03020281028942EA01020281704704
:1034600002894FF67F7302EA03020281028942EA6F
:10347000010202817047818470478185704781868F
:1034800070470187704781877047A0F840107047E8
:1034900002884FF6FF4302EA03020280028842EAF2
:1034A0000102028070470146888E70470146088FEE
:1034B00070470146888F70470146B1F84000704759
:1034C0000146888C70470146088D704702464FF0D0
:1034D0000000138A0B4202D04FF0010001E04FF0D0
:1034E000000070476FEA01020282704730B5024661
:1034F0004FF0000003460446158A05EA010395894A
:1035000005EA01041BB114B14FF0010001E04FF0D6
:10351000000030BD6FEA01020282704710B5044618
:10352000F848844209D101218803FEF7FBFE0021FF
:103530004FF48040FEF7F6FE32E0F348844209D1B2
:1035400001214804FEF7FDFE00214FF40030FEF794
:10355000F8FE25E0ED48844209D101218804FEF7F8
:10356000F0FE00214FF48020FEF7EBFE18E0E84863
:10357000844209D10121C804FEF7E3FE00214FF483
:103580000020FEF7DEFE0BE0E248844208D1012174
:103590000805FEF7D6FE00214FF48010FEF7D1FE9D
:1035A00010BD2DE9F04786B005460E464FF00004E9
:1035B000A24600BFA1462746B08900B100BF2F46F2
:1035C0002C8A4CF6FF7004EA0004F08840EA0404F8
:1035D0002C82AC894EF6F31004EA0004B0883189DD
:1035E00040EA0100718940EA010040EA0404AC812C
:1035F000AC8A4FF6FF4004EA0004B08940EA0404B4
:10360000AC8201A8FEF7F5FDBE48874202D1DDF885
:1036100010A001E0DDF80CA0A88910F4004F09D03B
:103620000AEBCA0000EB0A1031684FEA4101B0FB17
:10363000F1F808E00AEBCA0000EB0A1031684FEA23
:103640008101B0FBF1F84FF06400B8FBF0F04FEAF5
:1036500000144FEA14104FF0640101FB1089A8898F
:1036600010F4004F0AD04FF0320000EBC900B0FB5D
:10367000F1F000F0070040EA04040BE04FF03200E4
:1036800000EB09104FF06401B0FBF1F000F00F0007
:1036900040EA04042C8106B0BDE8F0874FF41651CF
:1036A00001604FF000018180C18001814FF00C0169
:1036B00041814FF000018181704710B502464FF003
:1036C0000000108A4FF2FF0300EA03000B884C88C9
:1036D00043EA04038C8843EA0403CC8843EA0403E6
:1036E00043EA0000108210BD4FF0000101804180CC
:1036F0008180C180704721B1828942F40052828169
:1037000005E082894DF6FF7302EA03028281704769
:10371000F0B503464FF00004264625462046A1F5A5
:1037200010676A3F00D100BF1846C1F3421401F090
:103730001F064FF0010707FA06F5012C02D100F130
:103740000C0006E0022C02D100F1100001E000F1B3
:10375000140022B1076847EA0507076003E007681D
:1037600027EA05070760F0BD10B522B1838A43EA56
:103770000103838206E0838A6FEA0104A4B203EAAC
:103780000403838210BD028A4FF6F07302EA03023B
:103790000282028A42EA01020282704782894FF263
:1037A000FF7302EA03028281828942EA0102828176
:1037B000704721B1828942F00202828105E082894C
:1037C0004FF6FD7302EA030282817047028A4FF6C8
:1037D000DF7302EA03020282028A42EA01020282E3
:1037E000704721B1028A42F48042028205E0028AD7
:1037F0004BF6FF7302EA030202827047C1F308022C
:103800008280704701468888C0F30800704781892C
:1038100041F0010181817047028BD2B20283028B99
:1038200042EA012202837047028B02F47F42028344
:10383000028B42EA01020283704721B1828A42F080
:103840002002828205E0828A4FF6DF7302EA0302D9
:103850008282704721B1828A42F01002828205E0A2
:10386000828A4FF6EF7302EA03028282704721B127
:10387000828A42F00802828205E0828A4FF6F7735C
:1038800002EA03028282704721B1828942F4004237
:10389000828103E08289C2F30E028281704721B1E6
:1038A000828A42F40062828205E0828A4FF2FF73CC
:1038B00002EA030282827047828A4FF6FB7302EAB1
:1038C00003028282828A42EA01028282704721B127
:1038D000828A42F00202828205E0828A4FF6FD73FC
:1038E00002EA03028282704702464FF00000B1F5FF
:1038F000007F00D100BF13880B420DD04FF00100B4
:103900000CE0000000380140004400400048004046
:10391000004C0040005000404FF00000704701F4A0
:103920000072B2F5007F00D100BF6FEA0102028091
:10393000704770B502464FF0000423461D461846F6
:10394000A1F510666A3E00D100BFC1F3421501F037
:103950001F034FF0010606FA03F3012D03D19689E8
:1039600006EA030308E0022D03D1168A06EA0303E0
:1039700002E0968A06EA03034FEA21244FF001068B
:1039800006FA04F4168806EA04041BB114B14FF0D9
:10399000010001E04FF0000070BD10B54FF00002D3
:1039A0001346A1F510646A3C00D100BF4FEA212202
:1039B0004FF0010404FA02F4A3B26FEA0304048096
:1039C00010BD00004FF0000108466D4A126842F435
:1039D00080326B4B1A6000BF694A126802F40030F3
:1039E00001F1010110B9B1F5A06FF5D1644A126877
:1039F00012F4003F02D04FF0010001E04FF0000050
:103A0000012842D15F4A126842F010025D4B1A60F1
:103A10001A46126822F003021A601A46126842F02F
:103A200002021A60564A5268554B5A601A4652684A
:103A30005A601A46526842F480625A601A465268C6
:103A400022F47C125A601A46526842F4E8125A6014
:103A50001A46126842F080721A6000BF484A126823
:103A600012F0007FFAD0464A526822F00302444B1B
:103A70005A601A46526842F002025A6000BF404A39
:103A8000526802F00C02082AF9D1704710B5FFF70E
:103A900099FF10BD10B53A48006840F00100384960
:103AA000086008464068384900EA01003449486027
:103AB00008460068354900EA0100314908600846B7
:103AC000006820F4802008600846406820F4FE006A
:103AD00048604FF41F008860FFF7D8FF4FF0006088
:103AE0002B49086010BD10B54FF000010846024692
:103AF000234B5B6803F00C0121B1042906D008298F
:103B00002CD107E0234B244C23602BE0214B224C8B
:103B1000236027E01A4B5B6803F47010184B5B6856
:103B200003F480324FF0020303EB90402AB91B4BA1
:103B300000FB03F3184C23600FE0114B5B6813F498
:103B4000003F05D0154B00FB03F3134C236004E04A
:103B5000104B00FB03F3104C236003E00D4B0E4CA5
:103B6000236000BF00BF064B5B68C3F303130C4C1C
:103B7000E15C094B1B6823FA01F3074C236010BD7D
:103B800000100240002002400000FFF8FFFFF6FE98
:103B900008ED00E000127A004000002000093D001E
:103BA0004400002038B50446754951F824004FF010
:103BB0000101FEF799FB734830F81400ADF80000DE
:103BC0004FF014008DF803004FF002008DF8020052
:103BD0006D4951F824006946FDF7ECFF38BD69498D
:103BE00031F81010684A52F8202051617047654939
:103BF00031F81010644A52F8202011617047624970
:103C000051F82010C9685F4A32F8102081EA020199
:103C10005D4A52F82020D16070477FB504460D46BA
:103C20005A4951F824004FF00101FEF75DFB4FF0B7
:103C300004008DF80F00564830F81400ADF80C0061
:103C4000544951F8240003A9FDF7B4FF012D2FD1E9
:103C5000514A32F81420D1B2504A32F81420D0B26E
:103C6000FEF7DAF84E4830F8140001904FF00000EB
:103C70008DF808004FF010008DF809004FF001009A
:103C80008DF80A0001A8FDF7A2FE464830F814009E
:103C9000C0B28DF800004FF00F008DF801008DF8D4
:103CA00002004FF001008DF803006846FDF7A6FD05
:103CB0007FBD10B50446364A32F81410354A52F822
:103CC0002400FEF713F810BD38B504460D463649FA
:103CD00051F82410354A52F8242041EA020141F0FB
:103CE00001004FF00101FEF7FFFA34B9304951F8F5
:103CF00024000121FEF7F8FA05E02D4951F82400CF
:103D00000121FEF700FB4FF018008DF80300294851
:103D100030F81400ADF800004FF003008DF80200F9
:103D2000254951F824006946FDF744FF4FF004008F
:103D30008DF80300214830F81400ADF80000204948
:103D400051F824006946FDF735FF1E4951F824005B
:103D50002946FFF726FC1B4951F824000121FFF7F3
:103D6000CAFC38BD70B505460E4640F225511648CE
:103D7000FFF7DFFD18B11448FFF744FD044670BD9E
:103D8000147D00080C7D000854000020287D0008E8
:103D9000247D000864000020307D00082E7D00088E
:103DA0002C7D0008327D0008407D00084C7D000815
:103DB000347D0008587D0008740000205E7D0008F6
:103DC000800000206800002000480040064880472E
:103DD00006480047FEE7FEE7FEE7FEE7FEE7FEE7F0
:103DE000FEE7FEE7FEE7FEE7953A0008310100082E
:103DF00001464FF0FF3011B94FF0000002E00129F9
:103E000000D108467047014609B9FE4805E001297E
:103E100001D1FD4801E04FF00000704770B5054644
:103E20002846FFF7E5FF0446FCB9F848C4EBC40197
:103E3000F74A42F821004FF48060C4EBC40102EB62
:103E400081014860FDF777F900EB80004FEA8000C0
:103E50004FF47A71B0FBF1F000F10100C4EBC40142
:103E6000EB4A02EB8101886120E0012C1ED1E94878
:103E7000C4EBC401E64A42F821004FF48060C4EB71
:103E8000C40102EB81014860FDF755F900EB8000A9
:103E90004FEA80004FF47A71B0FBF1F000F10100BD
:103EA000C4EBC401DA4A02EB81018861C4EBC400AF
:103EB000D74951F82000C4EBC401D54A02EB810177
:103EC0008860C4EBC400114651F82000C4EBC40163
:103ED00002EB8101C8604FF00000C4EBC40102EBAB
:103EE00081014861C4EBC400114601EB8000806988
:103EF000012806D84FF00200C4EBC40102EB810197
:103F0000886170BD2DE9F04107460D4616464FF019
:103F100000040DE0295D3846FFF770FC00BF40212A
:103F20003846FFF7E1FC0028F9D004F1010084B223
:103F3000B442EFDB2046BDE8F0812DE9F0410746B1
:103F40000E4614463846FFF75EFF8046256812E0AD
:103F50002068401B315C4046FFF750FC00BF8021C9
:103F60004046FFF7C1FC0028F9D080214046FFF70A
:103F7000D6FCA5F10105002DEAD1BDE8F0812DE9BF
:103F8000F84F8346894617464FF0010000904FF0E6
:103F90000005D7F800A05846FFF72AFF0446C4EBF7
:103FA000C4009B4901EB80000569002D7DD0C4EB66
:103FB000C40001EB8000406930B14FF00200009076
:103FC0004FF000003860ECE04FF003000090C4EBCD
:103FD000C4008F4901EB80000569554500D955465D
:103FE000C4EBC4008A4901EB80008068C4EBC401C3
:103FF000874A02EB8101C968884224D9C4EBC40016
:1040000002EB80002A46C168484602F023FFC4EB59
:10401000C4007F4901EB8000C0682844C4EBC401A0
:104020007B4A02EB8101C860C4EBC400114601EB7E
:1040300080000069A0EB0500C4EBC40102EB810124
:1040400008613D60ADE0C4EBC400714951F8200047
:10405000C4EBC4016E4A02EB810149680844C4EB19
:10406000C40102EB8101C968A0EB01082E46464558
:1040700043D8C4EBC40002EB80003246C168484616
:1040800002F0E8FEC4EBC400614901EB8000C068A7
:104090003044C4EBC4015E4A02EB8101C860C4EB4A
:1040A000C400114651F8200000E073E0C4EBC401E5
:1040B00002EB810149680844C4EBC40102EB8101B1
:1040C000C968884209D8C4EBC400114651F82000E1
:1040D000C4EBC40102EB8101C860C4EBC4004C49CD
:1040E00001EB80000069A0EB0600C4EBC401484A64
:1040F00002EB810108613D604BE0C4EBC400444A1F
:1041000002EB80004246C168484602F0A3FEC4EBC1
:10411000C4003F4951F82000C4EBC4013C4A02EB03
:104120008101C860C4EBC400114601EB8000006946
:10413000A0EB0800C4EBC40102EB81010861A6EB0F
:104140000806C4EBC402324B03EB820209EB080001
:10415000D168324602F07EFEC4EBC4002C4901EB6C
:104160008000C0683044C4EBC401294A02EB8101DD
:10417000C860C4EBC400114601EB80000069A0EBED
:104180000600C4EBC40102EB8101086106EB0800E4
:10419000386006E04FF0000A504638604FF00100EA
:1041A00000900098BDE8F88F2DE9F041064688465A
:1041B0003046FFF71DFE04463046FFF724FE074653
:1041C0008AE03846FFF71EFBC5B2C4EBC4001049B5
:1041D00001EB8000C168C4EBC4000D4A02EB800013
:1041E000806800F10100814229D0C4EBC40011466F
:1041F00001EB8000C068C4EBC40152F82110884272
:104200001FD109E000380140004400406402002052
:10421000640A002064060020C4EBC400114651F873
:104220002000C4EBC40102EB810149680844401E30
:10423000C4EBC40102EB81018968884201D1BDE869
:10424000F081C4EBC4009E4901EB80008168C4EB9F
:10425000C4009B4A02EB8000806800F10100C4EBBF
:10426000C402974B03EB820290600D70C4EBC40054
:10427000194601EB8000006900F10100C4EBC401A4
:104280001A4602EB81010861C4EBC400114651F8E3
:104290002000C4EBC40102EB810149680844C4EB6F
:1042A000C40102EB81018968884209D8C4EBC400CB
:1042B000114651F82000C4EBC40102EB8101886073
:1042C000C4EBC4007E4901EB80008069C4EBC401EB
:1042D0007B4A02EB8101486140F225513846FFF7E5
:1042E00003FB01283FF46DAF00BFA8E72DE9F041C3
:1042F00006460D463046FFF77BFD04463046FFF785
:1043000082FD0746C4EBC4006D4901EB8000C16823
:10431000C4EBC4006A4A02EB8000806800F101002F
:1043200081421ED0C4EBC400114601EB8000C0687E
:10433000C4EBC40152F82110884214D1C4EBC4006C
:10434000114651F82000C4EBC40102EB8101496819
:104350000844401EC4EBC40102EB81018968884215
:1043600001D1BDE8F081C4EBC400554901EB8000E8
:104370008168C4EBC400524A02EB8000806800F1FF
:104380000100C4EBC4024E4B03EB820290600D703F
:10439000C4EBC400194601EB8000006900F1010084
:1043A000C4EBC4011A4602EB81010861C4EBC400EE
:1043B000114651F82000C4EBC40102EB81014968A9
:1043C0000844C4EBC40102EB81018968884209D822
:1043D000C4EBC400114651F82000C4EBC40102EB49
:1043E00081018860C4EBC400354901EB800080691D
:1043F000C4EBC401324A02EB8101486100BFB0E75F
:1044000070B505460E462846FFF7F2FC0446C4EB9D
:10441000C4002B4901EB8000406960B1C4EBC400CB
:1044200001EB80004069A0F10100C4EBC401244A03
:1044300002EB8101486170BD00B585B0012144F2F5
:104440000400FDF751FF4FF40070ADF810004FF07D
:1044500018008DF813004FF003008DF8120004A926
:104460001848FDF7A7FB4FF48060ADF810004FF03F
:1044700004008DF8130004A91248FDF79BFB4FF4CC
:10448000E13000904FF00000ADF80400ADF80600F8
:10449000ADF80800ADF80C004FF00C00ADF80A00C4
:1044A00069460948FFF77DF8012240F22551064888
:1044B000FFF72EF901210448FFF71DF905B000BDF3
:1044C000640A002000080140003801402DE9F04F47
:1044D00002460D464FF000018C46634664460E4688
:1044E00012B90020BDE8F08F01E002F1010210785E
:1044F0002028FAD010782D2804D14FF0010102F1C4
:10450000010204E010782B2801D102F10102107899
:10451000302802DB1078392801DD0020E2E74FF077
:1045200001072CE04FF00A0C00209846A8FB0C9BDA
:1045300004FB0CBC03FB00CC107819EB00084CF119
:10454000000C4FF03009B8EB09036CF1000431B1F5
:104550004FF0004C0020BCEB030CA04107DB51B92D
:104560006FF0004C0020BCEB030CA04103DA4FF0CD
:1045700000073846B6E702F1010206F1010610789D
:10458000302804DB1078392801DCAE42CADB19B1CF
:104590004FF0FF30A3FB003C1846A3E710B54FF4E3
:1045A0000061FE48FDF7C4FB10BD10B54FF400617B
:1045B000FA48FDF7BBFB10BD10B54FF48061F84819
:1045C00002F061FC10BD2DE9F84306464FF480600F
:1045D00000906A46F2494FF00000FFF7D0FC032834
:1045E00002D00120BDE8F883009800287ED0EDA01D
:1045F000009903F0BDF94FF0000807E0E84810F813
:104600000810F0A003F0B4F908F101080098804503
:10461000F4D3EBA003F0ACF9EBA003F0A9F9F0A1FF
:10462000DF4802F04AFC0746002F74D04FF0000428
:104630004FF002024FF02C01384600F0E5FA044634
:104640008CB104F101042078412802D0207861283F
:1046500003D14FF00100B07205E04FF00000B072DE
:104660004FF00300BEE74FF000044FF001024FF09F
:104670002C01384600F0C8FA04466CB104F101047C
:104680004FF0000505E014F8010B705505F101002D
:10469000C5B220782C28F6D14FF000044FF0030269
:1046A0004FF02C01384600F0AFFA04467CB104F11B
:1046B00001044FF0000507E014F8011B06F10B00A0
:1046C000415505F10100C5B220782C28F4D14FF0F6
:1046D00000044FF004024FF02C01384600F094FA29
:1046E000044644B104F10104207800E093E02C2852
:1046F00001D0207830754FF000044FF005024FF0E4
:104700002C01384600F080FA044684B104F101041B
:104710004FF0000508E078E014F8011B06F11500E1
:10472000415505F10100C5B220782C28F4D14FF095
:1047300000044FF006024FF02C01384600F064FAF6
:10474000044634B104F1010420782C2801D02078EB
:10475000F0774FF000044FF007024FF02C0138467D
:1047600000F052FA0446A4B104F101044FF0000530
:1047700007E014F8011B06F12000415505F1010086
:10478000C5B220782C28F4D14FF0000106F12000AA
:1047900041554FF000044FF008024FF02C0138460D
:1047A00000F032FA0446A4B104F101044FF0000510
:1047B00007E014F8011B06F13000415505F1010036
:1047C000C5B220782C28F4D14FF0000106F130005A
:1047D00041554FF000044FF009024FF02C013846CC
:1047E00000F012FA044694B104F101044FF0000500
:1047F00007E014F8011B06F14000415505F10100E6
:10480000C5B220782C28F4D101E00220EAE6644801
:10481000009902F038FB0020E4E60FB42DE9F043E4
:104820008BB0DDF89080022113A8FFF74FFE0090B7
:1048300002210DF14A00FFF749FE0190022112A862
:10484000FFF744FE0290022122A8FFF73FFE0390EB
:1048500002210DF18A00FFF739FE0490022123A8FE
:10486000FFF734FE00F1640005904FF0000008905F
:10487000684602F09FFAC8F800005BA003F078F8E1
:104880004FF0000906E018F8091059A003F070F87D
:1048900009F10109B9F1040FF5D350A003F068F84C
:1048A0009DF85C004E2839D102210DF15500FFF72B
:1048B0000DFE044602210DF15300FFF707FEC0EB89
:1048C000001004EB800447F230504443012116A845
:1048D000FFF7FCFD40F27711484304EBC0040121CF
:1048E0000DF15900FFF7F2FDC0EB001000EB800066
:1048F00004EB800401210DF15A00FFF7E7FDC0EB46
:10490000001004EB400401210DF15B00FFF7DEFD18
:1049100000EB40002044C8F804003EE09DF85C0035
:1049200053283AD102210DF15500FFF7CFFD04467F
:1049300002210DF15300FFF7C9FDC0EB001004EB9D
:10494000800447F230504443012116A8FFF7BEFD12
:1049500040F27711484304EBC00401210DF15900E6
:10496000FFF7B4FDC0EB001000EB800004EB800407
:1049700001210DF15A00FFF7A9FDC0EB001004EB77
:10498000400401210DF15B00FFF7A0FD00EB4000AA
:104990002044C0F10000C8F804002DE000100140E0
:1049A0009C0A0020475053496E666F416E616C79D6
:1049B0007A65207265637620256420627974657358
:1049C0000D0A000025630000475053496E666F4191
:1049D0006E616C797A6520646F6E650D0A00000067
:1049E000244750524D4300005554433A0000000004
:1049F000307825782D00000073A002F0B9FF4FF049
:104A0000000909E008F1040010F80910AFF22000D5
:104A100002F0AEFF09F10109B9F1040FF2D3AFF2D0
:104A2000440002F0A5FF9DF86700452838D1022117
:104A300018A8FFF74BFD044603210DF15D00FFF7B9
:104A400045FDC0EB001004EB800447F230504443B6
:104A500001210DF16300FFF739FD40F27711484362
:104A600004EBC004012119A8FFF730FDC0EB0010D2
:104A700000EB800004EB800401210DF16500FFF7DD
:104A800025FDC0EB001004EB400401210DF1660090
:104A9000FFF71CFD00EB40002044C8F808003DE093
:104AA0009DF86700572839D1022118A8FFF70EFD9D
:104AB000044603210DF15D00FFF708FDC0EB001077
:104AC00004EB800447F23050444301210DF16300B0
:104AD000FFF7FCFC40F27711484304EBC0040121CE
:104AE00019A8FFF7F3FCC0EB001000EB800004EB0B
:104AF000800401210DF16500FFF7E8FCC0EB001018
:104B000004EB400401210DF16600FFF7DFFC00EB30
:104B100040002044C0F10000C8F808002CA002F0BA
:104B200027FF4FF0000909E008F1080010F809100C
:104B3000AFF2441002F01CFF09F10109B9F1040FB2
:104B4000F2D3AFF2681002F013FF1AA803F0C9F80D
:104B50000446214A214B02F0FAF9064602F067FAB0
:104B600088F80C001EA803F0BCF8044602F05FFAB7
:104B7000A8F80E009DF8520088F8100098F80C1064
:104B800017A002F0F5FE1AA002F0F2FE4FF00009A5
:104B900009E008F10E0010F80910AFF2AC1002F0B5
:104BA000E7FE09F10109B9F1020FF2D3AFF2D41017
:104BB00002F0DEFE98F810100FA002F0D9FE0BB044
:104BC000BDE8F0035DF814FB4C4154493A00000085
:104BD0004C4F4E47493A00009A9999999999FD3F4F
:104BE00053504545443A20307825780A00000000AB
:104BF000434F555253453A005354415455533A206C
:104C0000307825780A0000002DE9F04106460F466D
:104C100014464FF00005B046304602F06DF9A04250
:104C200002D20020BDE8F08108E03946404602F09B
:104C30005AF9054605B905E005F101082000A4F17F
:104C40000104F2D100BF2846ECE72DE9F047054604
:104C50000F469046384602F04FF98246384602F039
:104C60004BF9A8EB000000F101064FF00009002EFF
:104C700011DD4C4608E028195246394602F044F945
:104C800000B903E004F10104B442F4DB00BFB44214
:104C900001DA05EB04094846BDE8F087F0B50546A2
:104CA0000E464FF000042F469A4201D90020F0BD75
:104CB0001AE04FF0000105E0785CB04200D103E05B
:104CC00001F101019942F7D300BF994206D207EBE7
:104CD000010401F10100A3EB000301E04FF0000427
:104CE00004B905E004F101071000A2F10102E0D1CE
:104CF00000BF2046DBE770B503460C464FF00000CE
:104D00000546F4B194421CD901460FE05E5C302E9A
:104D100005DB5E5C392E02DC05F1010501E04FF098
:104D20000005954200D303E001F10101A142EDD35A
:104D300000BF954205D303EB0106A6EB020606F180
:104D4000010070BD30B502460B464FF0000004462E
:104D5000014622E0555C412D06DB555C462D03DC07
:104D6000555CA5F1370412E0555C612D06DB555CFE
:104D7000662D03DC555CA5F1570408E0555C302D29
:104D800005DB555C392D02DC555CA5F130044FEA9A
:104D9000001040EA040001F101019942DAD330BD6C
:104DA00070470020704708B501210420FDF79CFAE8
:104DB0004FF00200ADF800004FF010008DF8030036
:104DC0004FF002008DF802006946FD48FCF7F2FE44
:104DD00008BD10B54FF40071FA48FCF7A7FF10BDED
:104DE00010B54FF40071F748FCF7A2FF10BD10B5E5
:104DF0000221F348FCF79CFF4FF49670FCF74BFA46
:104E00000221EF48FCF792FF4FF49670FCF743FA4B
:104E100010BD10B50221EA48FCF78AFF40F6B83011
:104E2000FCF74BFA0221E648FCF780FF40F6B83069
:104E3000FCF743FA10BD10B54FF48061E24802F070
:104E400022F810BD2DE9F84F05460F4690464FF069
:104E50000F09DD4E4FF0000ACDF800800098A0B198
:104E6000DAA002F085FD4FF0000405E0295DDCA02A
:104E700002F07EFD04F1010400988442F6D3D9A02B
:104E800002F076FDD8A002F073FD6A4629460120A3
:104E9000FFF753F8002F41D033E04FF480600090CB
:104EA0004FF00A00FCF7F7F96A4631460120FFF798
:104EB00066F882460098C0B1BAF1030F15D1CFA0B1
:104EC000009902F055FD4FF0000405E0315DC4A0EB
:104ED00002F04EFD04F1010400988442F6D3C1A013
:104EE00002F046FDCCA002F043FD009848B1BAF1B3
:104EF000030F06D139463046009AFFF7A6FE00B1EF
:104F000005E0A9F10100C0B25FEA0009C5D100BF08
:104F1000B9F1000F02D10120BDE8F88F0020FBE7B6
:104F20002DE9FF4F81B0064688461F46DDF83890D0
:104F30004FF00F0AA44C4FF0000B0398009000981C
:104F4000A0B1A2A002F014FD4FF0000505E0715DD4
:104F5000A3A002F00DFD05F1010500988542F6D3EE
:104F6000A0A002F005FDA0A002F002FD6A463146B5
:104F70000120FEF7E2FF44E04FF4806000904FF024
:104F80000A00FCF788F96A4621460120FEF7F7FF80
:104F900083460098B8B1BBF1030F14D1A4A002F06E
:104FA000E7FC4FF0000505E0615D8DA002F0E0FC3C
:104FB00005F1010500988542F6D38AA002F0D8FCDD
:104FC00089A002F0D5FC0098A0B1BBF1030F11D16C
:104FD00007B13C60B9F1000F02D00098C9F8000099
:104FE000B8F1000F05D04146204601F066FF08B138
:104FF0000DE00CE0BAF1000F03D1012005B0BDE8CF
:10500000F08FAAF10100C0B25FEA000AB4D100BF7C
:105010000020F3E710B509228AA18C48FFF712FFA0
:1050200008B9032010BD092289A18848FFF70AFFAB
:1050300008B90420F6E70120F4E770B50446864875
:1050400001F05AFF0546FFF7F6FE2A4683498248DB
:10505000FFF7F8FE98BB01222C215B48FFF7D4FD37
:105060007F4908600846006808B9012070BD7C4887
:105070000068A0F102007A490860084600680078DC
:10508000302804DB084600680078392806DD7448BB
:1050900000684078A0F1300020700EE07048006891
:1050A0004078A0F130006E4909680978A1F130011B
:1050B00001EB810100EB410020700020D6E7FFE703
:1050C0000120D3E73EB504464FF000000290019066
:1050D000644801F011FF0546FFF7ADFE01A802ABE1
:1050E0002A465E4900905F48FFF71AFFA0B90F22D9
:1050F000DDE90110FFF7FFFD5B4908600846006825
:1051000008B901203EBD2CB10F2257480168204646
:1051100001F0A0FE0020F5E70120F3E73EB50446CC
:105120004FF0000002900190504801F0E5FE054666
:10513000FFF781FE01A802AB2A46484900904B4880
:10514000FFF7EEFEA0B90F22DDE90110FFF7D3FD56
:10515000474908600846006808B901203EBD2CB1E7
:105160000F2243480168204601F074FE0020F5E755
:105170000120F3E7F0B585B006464FF0000004903B
:1051800003900546394801F0B7FE0746FFF753FE86
:1051900003A804AB3A46314900903448FFF7C0FEFB
:1051A000002869D10F22DDE90310FFF7A4FD314982
:1051B00008600846006810B9012005B0F0BD5CE049
:1051C00000080140001001402B0F002047534D5FA5
:1051D00053656E6441542073656E640D0A000000CF
:1051E000256300000D0A000047534D5F53656E6450
:1051F000415420646F6E650D0A00000047534D5FF7
:1052000053656E6441542072656376202564206284
:10521000797465730D0A000047534D5F53656E64E2
:105220004154207265637620646F6E650D0A00003C
:1052300047534D5F53656E64415420726563760D2C
:105240000A0000004D4F42494C450000AB7D00086C
:10525000554E49434F4D0000877D0008687D00088A
:10526000B8000020997D0008BC0000202B7F0008BA
:10527000C0000020C40000205BE04FF0000406E006
:10528000FE480068005D02A9085504F10104032CE2
:10529000F6D34FF000008DF80B00044608E0F74805
:1052A000006800F10300005D01A9085504F1010444
:1052B000022CF4D34FF000008DF8060002A801F094
:1052C00039FE05464FF0FF00B5FBF0F03070FF2DC2
:1052D00009D94FF0FF00B5FBF0F100FB1150A0F130
:1052E0000100707006E04FF0FF00B5FBF0F100FB2D
:1052F0001150707001A801F01DFE05464FF0FF002F
:10530000B5FBF0F0B070FF2D09D94FF0FF00B5FBF1
:10531000F0F100FB1150A0F10100F07006E04FF039
:10532000FF00B5FBF0F100FB1151F170002005B05A
:10533000F0BD0120FBE72DE9FF4105464FF00006D7
:105340003046039002900446CD4801F0D5FD064654
:10535000FFF771FD02A803AB3246CAA10090C8480E
:10536000FFF7DEFD002872D101222221DDE90230A3
:10537000FFF794FC04461CB9012004B0BDE8F0819D
:10538000ECB160788DF80400A0788DF8050001A8D4
:1053900001F0B2FD0746394601A8FFF7D3FCA8701B
:1053A000E0788DF8040020798DF8050001A801F05F
:1053B000A3FD0746394601A8FFF7C4FCE8700322A5
:1053C0002221DDE90230FFF769FC04460CB9012017
:1053D000D3E7ECB160788DF80400A0788DF8050073
:1053E00001A801F089FD0746394601A8FFF7AAFC8C
:1053F0002871E0788DF8040020798DF8050001A867
:1054000001F07AFD0746394601A8FFF79BFC687159
:1054100002222C21DDE90230FFF740FC04460CB9E2
:105420000120AAE714B114F8010C687001222C21A4
:10543000DDE90230FFF732FC04460CB901209CE79D
:1054400014B114F8010C2870002096E7FFE7012042
:1054500093E7FEB504464FF00000029001908B48A0
:1054600001F04AFD0646FFF7E6FC01A802AB324612
:10547000874900908548FFF753FD30BB01222C215E
:105480000298FFF7C1FB834908600846006808B925
:105490000120FEBD7F48006810F8010CA0F130002B
:1054A00020707C48006800F101007A4908600846D5
:1054B000006801F03FFD00EB400505EBD570C0F33F
:1054C0004F0060804FF00000E3E70120E1E7FEB508
:1054D00006464FF000042046029001906E4801F00D
:1054E0000BFD0546FFF7A7FC01A802AB2A46684959
:1054F00000906948FFF714FD08B90020FEBD0120A7
:10550000FCE72DE9F8430546884617464FF00000B2
:105510000090FFF790FC6148614908600846006808
:1055200010B90120BDE8F8833A465E495C4800683E
:1055300002F02EFA5A48006801F0DEFC009054494F
:105540005748009A0068FFF77DFC012F44D141467F
:10555000554801F0E6FCFFF76EFC504850490860E2
:105560000846006808B90120DCE72A464F494C4844
:10557000006802F00DFA4A48006801F0BDFC009096
:105580004BA14748009A0068FFF75CFC3220FBF70C
:1055900082FE48A1444801F082FC434801F0ACFC83
:1055A0000090FFF748FC6A463F490120FEF7C5FC22
:1055B000C820FBF770FE4FF4806000906A463E49B9
:1055C0004FF00100FEF7B9FC3CA13B4801F075FC2F
:1055D000002851D00020A5E7002F4DD13E4634468B
:1055E00000BF04F101002A5C304606F10101CEB291
:1055F00033490A542A5D304606F10101CEB23049E2
:105600000A5404F10200C4B204F10100285C0D2820
:1056100002D0601C285C78B94FF04602304606F193
:105620000101CEB226490A542A5D304606F1010135
:10563000CEB223490A5401E00B2CD2DB00BF21A1DA
:10564000194801F06EFC1E49174801F028FC21A101
:10565000154801F024FC404601F04EFC4FEA500092
:105660000090009800F00F034FEA10121BA11D4894
:1056700002F08EF91B4937E088E00000C4000020EA
:10568000987F00084352454700000000217F000832
:10569000687D0008C8000020577F00082B130020F9
:1056A000CC000020F37E00089C0E0020FF7E000846
:1056B0003E0000001A0000002B0F00204F4B00009E
:1056C0001C0F002030303131303030443931363821
:1056D0000000000030303038413000002558255897
:1056E00000000000D0000020F84801F0D8FB41463F
:1056F000F64801F0D4FBFFF79EFBF548F54908603A
:105700000846006808B901200CE7F04801F0F4FBF6
:105710004FF00101C1EB50000090EF49ED48009AB5
:10572000006802F035F9EB48006801F0E5FB0090F5
:10573000AFF28401E748009A0068FFF783FB32204C
:10574000FBF7A9FDAFF29401E04801F0A8FBDF48A8
:1057500001F0D2FB0090FFF76EFB6A46DB490120A7
:10576000FEF7EBFBC820FBF796FD4FF4806000903E
:105770006A46DA494FF00100FEF7DFFBAFF2C401E1
:10578000D64801F09AFB08B10020CBE60120C9E61B
:1057900070B54FF00004D24801F0AEFB054607E0BB
:1057A0001420FBF778FD04F10104032C00D906E076
:1057B0002A46CC49CA48FFF745FB0028F0D100BF74
:1057C0004FF000044FF00100C749087008E0FFF7F0
:1057D00021FCC549087004F10104052C00D903E03F
:1057E000C14800780128F2D000BF70BDFEB54FF06F
:1057F00000063046029001900546BC4801F07CFB53
:1058000006461BE001A802AB3246AFF288110090B9
:10581000B648FFF785FB58B901222C21DDE901309C
:10582000FFF73CFA04461CB16078312800D107E04C
:1058300005F101054FF01400FBF72DFD0B2DE1D311
:1058400000BFFEBD70B54FF000042546A048A84932
:1058500008604FF00202A749A548006802F098F8D6
:10586000A348006801F048FB044602E0052D00D97A
:1058700007E02246A0499E480068FFF7E3FA0028A7
:10588000F4D100BF70BD70B504469C4801F034FBF4
:105890000546FFF7D0FA2A4697499848FFF7D2FA0B
:1058A000C0B901223A218D48FFF7AEF9944908604A
:1058B0000846006808B9012070BD9148006800F1F1
:1058C00001008F4908600846006801F033FB207032
:1058D0000020F1E70120EFE7F8B504464FF000059E
:1058E0002846009006466846FFF7CDFF9DF8000069
:1058F000A0421AD0764883490860224682498148EE
:10590000006802F045F87F48006801F0F5FA0546A6
:1059100002E0052E00D907E02A4677497948006859
:10592000FFF790FA0028F4D100BFF8BD3EB54FF064
:10593000000002900190054621E000BF01A802ABE3
:105940000B2272A100907348FFF7EAFA0028F5D104
:1059500001223A21DDE90130FFF7A0F904464CB1FC
:1059600000BF04F1010420782028FAD020783128E3
:1059700000D105E005F10105052D00D900E0DCE7C7
:1059800000BF3EBD3EB54FF0000528460290019095
:105990000446614801F0B0FA0546FFF74CFA01A849
:1059A00002AB2A46544900905B48FFF7B9FA30B978
:1059B0005AA1DDE90120FFF748F900B13EBD444896
:1059C0005849086058A25A495648006801F0E0FF5B
:1059D0005448006801F090FA054604E004F101041F
:1059E000052C00D907E02A4643494E480068FFF7D6
:1059F00029FA0028F2D100BF00BFDFE770B54FF0F1
:105A000000052C464B4801F077FA054604E004F106
:105A10000104052C00D906E02A4600214548FFF77D
:105A200011FA0028F3D100BF70BD70B54FF000052A
:105A30002C46414801F060FA054604E004F10104F7
:105A4000052C00D906E02A462B493B48FFF7FAF916
:105A50000028F3D100BF70BD30B591B004464FF0BF
:105A60003302214604A801F0F5F94FF0000528465D
:105A7000039002901648314908600846006810B942
:105A8000012011B030BD0CA804AB421D2C49009080
:105A90002A48006801F07CFF2848006801F02CFAD1
:105AA000054602A803AB2A46264900902348006811
:105AB000FFF736FA38B92349DDE90220FFF7C5F8C8
:105AC00010B10020DDE747E03EE000009C0E002022
:105AD0002B130020CC0000200D7F00082B0F00208E
